:03000000020946AC
:0C094600787FE4F6D8FD75812A02098D47
:100AB000202057656C636F6D652E2E2E20200077E9
:100AC00061746572207175616C6974790050483A7F
:050AD000002A002000D7
:100AF500040800000000040C0000000004120000BF
:0F0B05000000041600000000051A0000000000A8
:100A4D00E4F580D2A27F05FE120A8A7F38120B3B95
:100A5D00120A867F38120B3B120A867F38120B3B27
:100A6D007F38120B3B7F08120B3B7F01120B3B7F34
:090A7D0006120B3B7F0C020B3B3F
:050B7700C2A1C2A02292
:050B7C00D2A1C2A0227D
:050B8100C2A1D2A02278
:100B3B008F29120B6A40FB852980120B77020B86DB
:100B4B008F28120B6A40FB852880120B81020B86C3
:050B8600C2A2D2A22270
:100B15008F28ED6003432840432880120A86AF28BA
:030B2500020B3B85
:050B5B002430FB7D01C8
:0A0B60008B27120B15AF27020B4B79
:0809D2007BFF7A0A79D17D0157
:1009DA008F1F8D208B218A228923AB21AA22A9234A
:1009EA001203D96023120A86AF1F051FAB21AA2260
:1009FA00A9231203D9FBAD20120B6074012523F53C
:090A0A0023E43522F52280D222FA
:0D0B6A007580FF120B7C120B86E580332294
:10048B00E4FFFE7DA07C40AB0BAA0AA909A80812C9
:10049B0000FBE4FBFA798078441202048F0B8E0A7E
:1004AB008D098C087F4E7E627DBC7CC0AB0BAA0A8B
:1004BB00A909A8081200FB7B7F7A6A79AD784112F3
:1004CB00000A8F0F8E0E8D0D8C0CE4FFFEFDFCAB26
:1004DB000FAA0EA90DA80C1202A160025009E4F597
:1004EB000FF50EF50DF50CE4FFFE7D607C41AB0FB7
:1004FB00AA0EA90DA80C1202A1600E400C750F9A42
:10050B00750E99750D61750C41E4FFFE7DC87C423B
:10051B00AB0FAA0EA90DA80C1200FB120358AB07C8
:10052B00AA067C037DE81203F2EF2430F51A7C0354
:10053B007DE8AF03AE021203F27E007F64CFCDCF16
:10054B00CECCCE1203F2EF2430F51B751C2EE4FF3C
:10055B00FE7DC87C42AB0FAA0EA90DA80C1200FBA6
:10056B00120358AB07AA067C007D641203F27E00CF
:10057B007F0ACFCDCFCECCCE1203F2EF2430F51DB8
:10058B007C007D0AAF03AE021203F2ED2430F51EA0
:10059B00AB1AE4FD7F03120B60AB1BE4FD7F04126F
:1005AB000B60AB1CE4FD7F05120B60AB1DE4FD7F04
:0D05BB0006120B60AB1EE4FD7F07020B6013
:10076500E4FFFE7DC87C42AB15AA14A913A812129A
:1007750000FB120358AB07AA067C037DE81203F2BF
:100785008E1F8F207C037DE8AF03AE021203F27E3D
:10079500007F64CFCDCFCECCCE1203F28E218F2237
:1007A500E4FFFE7DC87C42AB15AA14A913A812125A
:1007B50000FB120358AB07AA067C007D641203F206
:1007C5007E007F0ACFCDCFCECCCE1203F28E238F03
:1007D500247C007D0AAF03AE021203F28C258D2620
:1007E500E5202430FB7D01E4FF120B60E5227F014B
:1007F500120B5B7B2E7D017F02120B60E5247F03CC
:0F080500120B5BE5262430FB7D017F04020B60A4
:1006AC00E4FFFE7DC87C42AB19AA18A917A8161244
:1006BC0000FB120358AB07AA067C037DE81203F279
:1006CC008E1F8F207C037DE8AF03AE021203F27EF7
:1006DC00007F64CFCDCFCECCCE1203F28E218F22F1
:1006EC00E4FFFE7DC87C42AB19AA18A917A8161204
:1006FC0000FB120358AB07AA067C007D641203F2C0
:10070C007E007F0ACFCDCFCECCCE1203F28E238FBC
:10071C00247C007D0AAF03AE021203F28C258D26D9
:10072C00E5202430FB7D017F07120B60E52224308D
:10073C00FB7D017F08120B607B2E7D017F09120B64
:10074C0060E5242430FB7D017F0A120B60E5262432
:09075C0030FB7D017F0B020B60F4
:1005C800120A4D7BFF7A0A79B0E4FDFF1209DA7B43
:1005D800FF7A0A79BF7D01E4FF1209DA7FF47E0110
:1005E800120A8A7F01120B3B759D0775BCA0E4F5C2
:1005F80015F514751380751240F519F5187517104F
:100608007516417BFF7A0A79CDFDFF1209DA120AC5
:10061800D51208141208B01207651206ACE5114588
:100628001070127F051209D27BFF7A0A79D37D01F7
:100638007F0C1209DAE5116401451070127BFF7A0C
:100648000A79D37D017F051209DA7F0C1209D27F5E
:1006580001120A13AC06AD07E412031F8F0B8E0AB2
:100668008D098C087FE87E03120A8A12048BAF1565
:10067800AE14AD13AC12AB0FAA0EA90DA80C120242
:10068800A1601C401AAF19AE18AD17AC16AB0FAA73
:100698000EA90DA80C1202A15005D294020616C28A
:0406A800940206169C
:100A1300E4F5BDF5BEE5BC54E044084FF5BC7FFAF0
:100A2300E5BC30E41E53BCEFAEBDEEFD7C007E00A2
:100A33007802C333CE33CED8F9FFE5BE5403FDEFBE
:090A43004DFF22DFDB7E047F0081
:010A4C002287
:100AD50020A41C7F647E00120A8A20A4120511E559
:100AE5001170020510640245107004F510F511220D
:1008140030A5030208AF7F647E00120A8A30A50364
:100824000208AFE5114510703DAF15AE14AD13AC21
:10083400127B0A7AD77923783C12000A8F158E141A
:100844008D138C127F9A7E997D617C41AB15AA141D
:10085400A913A8121202A1600D400BE4F515F514BA
:10086400751380751240E51164014510703DAF1990
:10087400AE18AD17AC167B0A7AD77923783C1200F0
:100884000A8F198E188D178C167F9A7E997D617C3C
:1008940041AB19AA18A917A8161202A1600D400BA2
:0C08A400E4F519F51875171075164122BF
:1008B00030A6030209457F647E00120A8A30A6032F
:1008C000020945E5114510703AAF15AE14AD13ACF1
:1008D000127B0A7AD77923783C1200068F158E1482
:1008E0008D138C12E4FFFEFDFCAB15AA14A913A80E
:1008F000121202A16002500BE4F515F51475138075
:10090000751240E51164014510703AAF19AE18AD8B
:1009100017AC167B0A7AD77923783C1200068F1918
:100920008E188D178C16E4FFFEFDFCAB19AA18A9D2
:1009300017A8161202A16002500BE4F519F51875FC
:060940001710751641229C
:040A86007F057E006A
:100A8A00E4F529F52A8E298F2AD3E52A9400E52947
:100A9A00940040117FFF7E00120B28E52A152A7068
:050AAA00E8152980E4BD
:010AAF002224
:100B2800E4FDFCC3ED9FEC9E5008000DBD00010CD8
:020B380080F14A
:010B3A002298
:100003000203C4E86480F8E933E83360110460F064
:10001300ED33EC337009E8FCE9FDEAFEEBFF220463
:1000230060DED3EB9FEA9EE99DE8C2E78CF0C2F75E
:1000330095F0400CE8CCF8E9CDF9EACEFAEBCFFB2A
:1000430012038F85D0F05804700320D5B3E80470F1
:10005300075002B2D50203CE92D5EC0460F7E4CC8C
:10006300C0E0C398F8603B94186008400DD0E0FBF3
:100073000203A6E4FBFAC9FC8028E830E406E4C9DD
:10008300FBE4CAFCE830E305E4C9CACBFCE8540747
:100093006010F8C3E913F9EA13FAEB13FBEC13FC52
:1000A300D8F130F52FC3E49CFCEF9BFFEE9AFEEDF5
:1000B30099FDD0E0FBEF4E4D4C701222DB0302039F
:1000C300CBEC2CFCEF33FFEE33FEED33FDED30E7ED
:1000D300EB0203A6EF2BFFEE3AFEED39FDD0E0FB7A
:1000E30050130BBB00030203CEED13FDEE13FEEF23
:0800F30013FFEC13FC0203A64D
:1000FB00EC4D6011E8497017ED33EC3304600DE4FF
:10010B00FCFFFEFD22E933E8330470F80203C4124E
:10011B00038F58046009E4CC24815006285009024F
:10012B0003CE2840030203CBC0E0EB4A7044B980F6
:10013B0006D0E0FB0203BAEF4E701CBD8008EBFF4C
:10014B00EAFEE9FD80EBE98DF0A4FEE5F00201E4A7
:10015B00E9CDF9EAFEEBFFEF89F0A4FCE5F0CE89DF
:10016B00F0A42EFFE435F0CD89F0A42DFEE435F09C
:10017B008067EF4E7005BD80D780C3EF8BF0A4ACCA
:10018B00F0EE8BF0A42CFCE435F0F8EF8AF0A42C05
:10019B00E5F038FCE433CB8DF0A42CFCE5F03BF818
:1001AB00EE8AF0A42CFCE5F038F8E433CF89F0A408
:1001BB002CFCE5F038CF3400CE89F0A42FFFE5F00E
:1001CB003EFEE433C98DF0A42EFEE5F039CD8AF066
:1001DB00A42FFFE5F03EFEE43DFD33D0E0FB5007DE
:1001EB000BBB000F0203CEEC2CFCEF33FFEE33FE08
:0601FB00ED33FD0203A636
:100201000203CEEC5D046005E8590470030203C4E7
:1002110012038F580460F6EC4860F2EC7004FDFEA6
:10022100FF22C860DB2481C85009C39860025006D0
:100231000203CB9850CAF582E9294B4A7005AB827B
:100241000203BA75F0007C1A7880C3EF9BEE9AED39
:1002510099400DC3EF9BFFEE9AFEED99FDE842F048
:10026100DC23ACF0D0E0FFD0E0FED0E0FDAB82209B
:10027100E7101BEB60BAEC2CFCEF33FFEE33FEED25
:1002810033FD0203A6E803F830E705C0F075F0007E
:10029100EF2FFFEE33FEED33FD40B830E7C280AA09
:1002A10074F8CC6480CCC86480C8F58204604FC304
:1002B100EB9FF5F0EA9E42F0E99D42F0E89C45F0A3
:1002C100603C501DE5825FFFE582D313CB5BCBF42D
:1002D1002B5582FB50280ABA002409B90020088056
:1002E1001DE5825BFBE582D313CF5FCFF4C3132FF0
:1002F1005582FF50090EBE00050DBD00010CC3EB78
:100301009FF5F0EA9E42F0E99D42F0E89C45F060DD
:0903110007CC4820E701B3EC22FF
:10031A0075F020800E75F010800575F0087D007E5E
:10032A00007F003392D530D503120428EC334010F5
:10033A00EF33FFEE33FEED33FDEC33FCD5F0ED2267
:0E034A00E5F0247EA2D513CC92E7CDCEFF22A3
:10035800EDD2E7CD33EC3392D524814006E4FFFE9D
:10036800FDFC22FCE4CFCECDCC24E0501174FF80FC
:10037800EDC3CC13CCCD13CDCE13CECF13CF047099
:07038800F030D5DE0204286D
:10038F00E9D2E7C933E833F892D5EDD2E7CD33ECB4
:07039F0033FC5002B2D5222D
:1003A600EC30E7100FBF000C0EBE00080DBD0004B8
:1003B6000BEB6014A2D5EB13FCED92E7FD2274FF64
:1003C600FCFDFEFF22E480F8A2D574FF13FC7D80BD
:0303D600E480EFD1
:100952000205C8E493A3F8E493A34003F68001F2EE
:1009620008DFF48029E493A3F85407240CC8C333A6
:10097200C4540F4420C8834004F456800146F6DF75
:10098200E4800B0102040810204080900AF5E47E06
:10099200019360BCA3FF543F30E509541FFEE4936A
:1009A200A360010ECF54C025E060A840B8E493A331
:1009B200FAE493A3F8E493A3C8C582C8CAC583CA5C
:1009C200F0A3C8C582C8CAC583CADFE9DEE780BE14
:010B140000E0
:1003D900BB010689828A83E0225002E722BBFE0222
:0903E900E32289828A83E4932255
:1003F200C2D5EC30E709B2D5E4C39DFDE49CFCEE26
:1004020030E715B2D5E4C39FFFE49EFE120436C363
:10041200E49DFDE49CFC800312043630D507C3E45E
:060422009FFFE49EFE2294
:0E042800C3E49FFFE49EFEE49DFDE49CFC22E5
:10043600BC000BBE0029EF8DF084FFADF022E4CCAA
:10044600F875F008EF2FFFEE33FEEC33FCEE9DEC73
:10045600984005FCEE9DFE0FD5F0E9E4CEFD22EDB9
:10046600F8F5F0EE8420D21CFEADF075F008EF2F03
:10047600FFED33FD4007985006D5F0F222C398FDF4
:050486000FD5F0EA2291
:00000001FF
