:10061E0052462044454D4F20424F524144005445CE
:0B062E004D50203D2000204320200004
:04068D00020C00005B
:10033C001206397F801206517BFF7A06791E120550
:10034C00741204238E0C8F0D7FE87E031205BE12EF
:10035C0004238E0C8F0D7FC01206517BFF7A067919
:10036C002C120574E50EB401057F2D120666AE0C39
:10037C00AF0D7C037DE81202D9EF4E6007EF2430FD
:10038C00FF120666AE0CAF0D7C037DE81202D9EFAE
:10039C004E701CAE0CAF0D7C037DE81202D97E00B2
:1003AC007F64CFCDCFCECCCE1202D9EF4E601FAE34
:1003BC000CAF0D7C037DE81202D97E007F64CFCD9B
:1003CC00CFCECCCE1202D9EF2430FF120666AE0C83
:1003DC00AF0D7C007D641202D97E007F0ACFCDCF99
:1003EC00CECCCE1202D9EF2430FF1206667F2E122D
:1003FC000666AE0CAF0D7C007D0A1202D9ED2430DE
:10040C00FF1206667BFF7A0679341205747FF47E40
:07041C00011205BE02035BA3
:1005BE00E4FDFCC3ED9FEC9E5015E4FBFA0BBB0073
:0F05CE00010AEB647B4A70F50DBD00010C80E45F
:0105DD0022FB
:1005DE00E4FDFCC3ED9FEC9E5015E4FBFA0BBB0053
:0F05EE00010AEB647B4A70F50DBD00010C80E43F
:0105FD0022DB
:10065100A907C2A77F017E001205DED2A5898012FB
:0506610005DEC2A52228
:10066600A907D2A77F017E001205DE8980D2A512D6
:0506760005DEC2A52213
:100574008B088A09890AAB08AA09A90A1202C0FFD2
:10058400D3940040101206667401250AF50AE43576
:0605940009F50980E122D7
:10063900C2A5C2A67F381206517F0C1206517F0649
:080649001206517F0102065167
:03069100010E0057
:10067B00E4FDFCC3ED9FEC9E50070DBD00010C800B
:01068B00F27C
:01068C00224B
:0205FE00AB0749
:10060000E4FAC2A40000EB1392A4EBC313FB7F0631
:0D0610007E0012067BD2A400000ABA08E5A5
:01061D0022BA
:10054D00E4FAC2A40000D2A40000EBC313FB30A454
:10055D0005430380800353037F7F067E0012067BD5
:06056D000ABA08DEAF032C
:010573002265
:10059A00D200D2A40000C2A47F327E0012067BD20F
:1005AA00A47F0312067BA2A492007F0A12067BD2C2
:0305BA00A4A200F8
:0105BD00221B
:1004230012059A50030204BC7FCC1205FE7F4412CE
:1004330005FE12059A50030204BC7FCC1205FE7F11
:10044300BE1205FE12054DA90712054D7583008FD7
:1004530082E582758200F583E9F582D394FFE58313
:10046300940F4016750E01E582F4FFE583F4FEEF69
:100473002401F582E43EF5838003E4F50EAD82ACFE
:1004830083E4120206E4FBFA7980783D1200FB8FC5
:100493000B8E0A8D098C08E4FFFE7D207C41AB0B9B
:1004A300AA0AA909A8081200FBE4FBFAF9783F128B
:0D04B300000A12023F8E838F82AF82AE835B
:0104C0002219
:100003000202ABE86480F8E933E83360110460F07E
:10001300ED33EC337009E8FCE9FDEAFEEBFF220463
:1000230060DED3EB9FEA9EE99DE8C2E78CF0C2F75E
:1000330095F0400CE8CCF8E9CDF9EACEFAEBCFFB2A
:1000430012027685D0F05804700320D5B3E804700B
:10005300075002B2D50202B592D5EC0460F7E4CCA6
:10006300C0E0C398F8603B94186008400DD0E0FBF3
:1000730002028DE4FBFAC9FC8028E830E406E4C9F7
:10008300FBE4CAFCE830E305E4C9CACBFCE8540747
:100093006010F8C3E913F9EA13FAEB13FBEC13FC52
:1000A300D8F130F52FC3E49CFCEF9BFFEE9AFEEDF5
:1000B30099FDD0E0FBEF4E4D4C701222DB030202A0
:1000C300B2EC2CFCEF33FFEE33FEED33FDED30E706
:1000D300EB02028DEF2BFFEE3AFEED39FDD0E0FB94
:1000E30050130BBB00030202B5ED13FDEE13FEEF3D
:0800F30013FFEC13FC02028D67
:1000FB00EC4D6011E8497017ED33EC3304600DE4FF
:10010B00FCFFFEFD22E933E8330470F80202AB1268
:10011B00027658046009E4CC248150062850090269
:10012B0002B52840030202B2C0E0EB4A7044B9802A
:10013B0006D0E0FB0202A1EF4E701CBD8008EBFF66
:10014B00EAFEE9FD80EBE98DF0A4FEE5F00201E4A7
:10015B00E9CDF9EAFEEBFFEF89F0A4FCE5F0CE89DF
:10016B00F0A42EFFE435F0CD89F0A42DFEE435F09C
:10017B008067EF4E7005BD80D780C3EF8BF0A4ACCA
:10018B00F0EE8BF0A42CFCE435F0F8EF8AF0A42C05
:10019B00E5F038FCE433CB8DF0A42CFCE5F03BF818
:1001AB00EE8AF0A42CFCE5F038F8E433CF89F0A408
:1001BB002CFCE5F038CF3400CE89F0A42FFFE5F00E
:1001CB003EFEE433C98DF0A42EFEE5F039CD8AF066
:1001DB00A42FFFE5F03EFEE43DFD33D0E0FB5007DE
:1001EB000BBB000F0202B5EC2CFCEF33FFEE33FE22
:0601FB00ED33FD02028D50
:1002010075F020800E75F010800575F0087D007E78
:10021100007F003392D530D50312032EEC3340100A
:10022100EF33FFEE33FEED33FDEC33FCD5F0ED2281
:0E023100E5F0247EA2D513CC92E7CDCEFF22BD
:10023F00EDD2E7CD33EC3392D524814006E4FFFEB7
:10024F00FDFC22FCE4CFCECDCC24E0501174FF8016
:10025F00EDC3CC13CCCD13CDCE13CECF13CF0470B3
:07026F00F030D5DE02032E82
:10027600E9D2E7C933E833F892D5EDD2E7CD33ECCE
:0702860033FC5002B2D52247
:10028D00EC30E7100FBF000C0EBE00080DBD0004D2
:10029D000BEB6014A2D5EB13FCED92E7FD2274FF7E
:1002AD00FCFDFEFF22E480F8A2D574FF13FC7D80D7
:0302BD00E480EFEB
:030000000204C136
:0C04C100787FE4F6D8FD75812002050864
:1002C000BB010689828A83E0225002E722BBFE023C
:0902D000E32289828A83E493226F
:1002D900BC000BBE0029EF8DF084FFADF022E4CC09
:1002E900F875F008EF2FFFEE33FEEC33FCEE9DECD2
:1002F900984005FCEE9DFE0FD5F0E9E4CEFD22ED18
:10030900F8F5F0EE8420D21CFEADF075F008EF2F61
:10031900FFED33FD4007985006D5F0F222C398FD52
:050329000FD5F0EA22EF
:0E032E00C3E49FFFE49EFEE49DFDE49CFC22E0
:1004CD0002033CE493A3F8E493A34003F68001F206
:1004DD0008DFF48029E493A3F85407240CC8C33330
:1004ED00C4540F4420C8834004F456800146F6DFFF
:1004FD00E4800B010204081020408090068DE47EFC
:10050D00019360BCA3FF543F30E509541FFEE493F3
:10051D00A360010ECF54C025E060A840B8E493A3BA
:10052D00FAE493A3F8E493A3C8C582C8CAC583CAE5
:10053D00F0A3C8C582C8CAC583CADFE9DEE780BE9D
:010694000065
:00000001FF
