:03000000020711E3
:0C071100787FE4F6D8FD758133020758AC
:1009AC00202057656C636F6D652E2E2E20200077EE
:1009BC0061746572207175616C6974790054553A73
:0409CC0000543A0099
:10095400040E00000000041200000000040800005F
:1009640000000D1E00000000000000000000000058
:0D09740000041A000000000416453E730A3E
:1008B500E4F580D2A27F05FE1209867F38120A0D63
:1008C5001209827F38120A0D1209827F38120A0D29
:1008D5007F38120A0D7F08120A0D7F01120A0D7F5B
:0908E50006120A0D7F0C020A0D37
:050A4400C2A1C2A022C6
:050A4900D2A1C2A022B1
:050A4E00C2A1D2A022AC
:100A0D008F32120A2D40FB853280120A44020A539E
:100A1D008F31120A2D40FB853180120A4E020A5386
:050A5300C2A2D2A222A4
:1009E7008F31ED6003433140433180120982AF31CB
:0309F700020A0DE4
:0A0A3A008B301209E7AF30020A1DED
:06083C007BFF7D01E4FFDB
:100842008F2B8D2C8B2D8A2E892FAB2DAA2EA92F83
:100852001203D96023120982AF2B052BAB2DAA2ECE
:10086200A92F1203D9FBAD2C120A3A7401252FF5D8
:090872002FE4352EF52E80D22270
:0D0A2D007580FF120A49120A53E58033223A
:10048B00E4FFFE7DA07C40AB11AA10A90FA80E12B1
:10049B0000FBE4FBFA798078441202048F118E1072
:1004AB008D0F8C0EE4FBFA79207841AF1DAE1CAD9D
:1004BB001BAC1A120204E4FBFA79C878C112000AC9
:1004CB007B527A49799D78BC1200FBAB11AA10A91B
:1004DB000FA80E12000A8F0B8E0A8D098C087F85D0
:1004EB007E6B7D587CC4AB0BAA0AA909A808120025
:1004FB00FBAB19AA18A917A81612000A8F158E1490
:10050B008D138C12E4FFFEFDFCAB15AA14A913A8E6
:10051B00121202A160025009E4F515F514F513F55A
:10052B00127F007E807D3B7C45AB15AA14A913A8D6
:10053B00121202A1400C75150075148075133B75D2
:10054B001245AF15AE14AD13AC12120358AB07AA7C
:10055B00067C037DE81203F2EF2430F51E7C037D4D
:10056B00E8AF03AE021203F27E007F64CFCDCFCE95
:10057B00CCCE1203F2EF2430F51FAF15AE14AD1332
:10058B00AC12120358AB07AA067C007D641203F26F
:10059B007E007F0ACFCDCFCECCCE1203F2EF24302C
:1005AB00F5207C007D0AAF03AE021203F2ED24307E
:1005BB00F521AB1EE4FD7F03120A3AAB1FE4FD7F6E
:1005CB0004120A3AAB20E4FD7F05120A3AAB21E490
:0605DB00FD7F06020A3A52
:1005E100AF1DAE1CAD1BAC1A120358AB07AA067C9B
:1005F100037DE81203F2EF2430F5227C037DE8AF9E
:1006010003AE021203F27E007F64CFCDCFCECCCEFB
:100611001203F2EF2430F523AF1DAE1CAD1BAC1A53
:10062100120358AB07AA067C007D641203F27E0018
:100631007F0ACFCDCFCECCCE1203F2EF2430F524FA
:1006410075252E7C007D0AAF03AE021203F2ED2464
:1006510030F526AB227D017F03120A3AAB237D01DF
:100661007F04120A3AAB247D017F05120A3AAB25B9
:100671007D017F06120A3AAB267D017F07020A3A05
:100681001208B51209D07BFF7A0979ACE4FDFF129B
:1006910008427A0979BB12083C7FF47E011209866F
:1006A1007F01120A0D759D0775BCA07BFF7A097940
:1006B100C9E4FDFF1208427A0979CD12083C7B702A
:1006C100E4FD7F08120A3A7B70E4FD7F09120A3AC1
:1006D1007B6DE4FD7F0A120A3A12079DAC06AD0755
:1006E100E412031F8F1D8E1C8D1B8C1A7F021208B2
:1006F1007BAC06AD07E412031F8F118E108D0F8C9A
:100701000E7FE87E0312098612048B1205E180C96F
:10087B00E4F5BDF5BEE5BC54E044084FF5BC7FFA8A
:10088B00E5BC30E41E53BCEFAEBDEEFD7C007E003C
:10089B007802C333CE33CED8F9FFE5BE5403FDEF58
:0908AB004DFF22DFDB7E047F001B
:0108B4002221
:040982007F057E006F
:10098600E4F532F5338E328F33D3E5339400E53216
:10099600940040117FFF7E001209FAE5331533708B
:0509A600E8153280E4B9
:0109AB002229
:1009FA00E4FDFCC3ED9FEC9E5008000DBD00010C08
:020A0A0080F179
:010A0C0022C7
:0C07FB00D2957B017A007D017C007F011B
:060807008C328D33A907BD
:10080D00E4FFEFC3995027E4FEEEC39533E5326460
:10081D0080F87480985014E4FDEDC39BEA6480F871
:0E082D0074809850030D80F10E80DE0F80D491
:01083B00229A
:1009D0001207FBC2957B3F7D017F06120807D29567
:0709E0007D017F05020807FD
:10092400E4F530F531753008D3E5309400748094E3
:1009340080401AC29500E53113F5311207FB30955A
:0F094400034331807B081207FF153080DBAF3192
:010953002281
:0208EE008F3049
:1008F000E4F531753108D3E531940074809480407B
:1009000022C29500E5301392957B0F1207FFD29516
:10091000E530C313F5307B017D017F011208071517
:030920003180D350
:0109230022B1
:10079D001209D07FCC1208EE7F441208EE1209D058
:1007AD007FCC1208EE7FBE1208EE1209248F2F1295
:1007BD000924EFFEE52FFFFDAC06E412031FE4FB59
:1007CD00FA7980783D1200FB8F2E8E2D8D2C8C2B7F
:1007DD00E4FFFE7D207C41AB2EAA2DA92CA82B1267
:0E07ED0000FBE4FBFAF9783F12000A02035801
:100003000203C4E86480F8E933E83360110460F064
:10001300ED33EC337009E8FCE9FDEAFEEBFF220463
:1000230060DED3EB9FEA9EE99DE8C2E78CF0C2F75E
:1000330095F0400CE8CCF8E9CDF9EACEFAEBCFFB2A
:1000430012038F85D0F05804700320D5B3E80470F1
:10005300075002B2D50203CE92D5EC0460F7E4CC8C
:10006300C0E0C398F8603B94186008400DD0E0FBF3
:100073000203A6E4FBFAC9FC8028E830E406E4C9DD
:10008300FBE4CAFCE830E305E4C9CACBFCE8540747
:100093006010F8C3E913F9EA13FAEB13FBEC13FC52
:1000A300D8F130F52FC3E49CFCEF9BFFEE9AFEEDF5
:1000B30099FDD0E0FBEF4E4D4C701222DB0302039F
:1000C300CBEC2CFCEF33FFEE33FEED33FDED30E7ED
:1000D300EB0203A6EF2BFFEE3AFEED39FDD0E0FB7A
:1000E30050130BBB00030203CEED13FDEE13FEEF23
:0800F30013FFEC13FC0203A64D
:1000FB00EC4D6011E8497017ED33EC3304600DE4FF
:10010B00FCFFFEFD22E933E8330470F80203C4124E
:10011B00038F58046009E4CC24815006285009024F
:10012B0003CE2840030203CBC0E0EB4A7044B980F6
:10013B0006D0E0FB0203BAEF4E701CBD8008EBFF4C
:10014B00EAFEE9FD80EBE98DF0A4FEE5F00201E4A7
:10015B00E9CDF9EAFEEBFFEF89F0A4FCE5F0CE89DF
:10016B00F0A42EFFE435F0CD89F0A42DFEE435F09C
:10017B008067EF4E7005BD80D780C3EF8BF0A4ACCA
:10018B00F0EE8BF0A42CFCE435F0F8EF8AF0A42C05
:10019B00E5F038FCE433CB8DF0A42CFCE5F03BF818
:1001AB00EE8AF0A42CFCE5F038F8E433CF89F0A408
:1001BB002CFCE5F038CF3400CE89F0A42FFFE5F00E
:1001CB003EFEE433C98DF0A42EFEE5F039CD8AF066
:1001DB00A42FFFE5F03EFEE43DFD33D0E0FB5007DE
:1001EB000BBB000F0203CEEC2CFCEF33FFEE33FE08
:0601FB00ED33FD0203A636
:100201000203CEEC5D046005E8590470030203C4E7
:1002110012038F580460F6EC4860F2EC7004FDFEA6
:10022100FF22C860DB2481C85009C39860025006D0
:100231000203CB9850CAF582E9294B4A7005AB827B
:100241000203BA75F0007C1A7880C3EF9BEE9AED39
:1002510099400DC3EF9BFFEE9AFEED99FDE842F048
:10026100DC23ACF0D0E0FFD0E0FED0E0FDAB82209B
:10027100E7101BEB60BAEC2CFCEF33FFEE33FEED25
:1002810033FD0203A6E803F830E705C0F075F0007E
:10029100EF2FFFEE33FEED33FD40B830E7C280AA09
:1002A10074F8CC6480CCC86480C8F58204604FC304
:1002B100EB9FF5F0EA9E42F0E99D42F0E89C45F0A3
:1002C100603C501DE5825FFFE582D313CB5BCBF42D
:1002D1002B5582FB50280ABA002409B90020088056
:1002E1001DE5825BFBE582D313CF5FCFF4C3132FF0
:1002F1005582FF50090EBE00050DBD00010CC3EB78
:100301009FF5F0EA9E42F0E99D42F0E89C45F060DD
:0903110007CC4820E701B3EC22FF
:10031A0075F020800E75F010800575F0087D007E5E
:10032A00007F003392D530D503120428EC334010F5
:10033A00EF33FFEE33FEED33FDEC33FCD5F0ED2267
:0E034A00E5F0247EA2D513CC92E7CDCEFF22A3
:10035800EDD2E7CD33EC3392D524814006E4FFFE9D
:10036800FDFC22FCE4CFCECDCC24E0501174FF80FC
:10037800EDC3CC13CCCD13CDCE13CECF13CF047099
:07038800F030D5DE0204286D
:10038F00E9D2E7C933E833F892D5EDD2E7CD33ECB4
:07039F0033FC5002B2D5222D
:1003A600EC30E7100FBF000C0EBE00080DBD0004B8
:1003B6000BEB6014A2D5EB13FCED92E7FD2274FF64
:1003C600FCFDFEFF22E480F8A2D574FF13FC7D80BD
:0303D600E480EFD1
:10071D00020681E493A3F8E493A34003F68001F26B
:10072D0008DFF48029E493A3F85407240CC8C333DD
:10073D00C4540F4420C8834004F456800146F6DFAC
:10074D00E4800B0102040810204080900954E47EDF
:10075D00019360BCA3FF543F30E509541FFEE493A1
:10076D00A360010ECF54C025E060A840B8E493A368
:10077D00FAE493A3F8E493A3C8C582C8CAC583CA93
:10078D00F0A3C8C582C8CAC583CADFE9DEE780BE4B
:010981000075
:1003D900BB010689828A83E0225002E722BBFE0222
:0903E900E32289828A83E4932255
:1003F200C2D5EC30E709B2D5E4C39DFDE49CFCEE26
:1004020030E715B2D5E4C39FFFE49EFE120436C363
:10041200E49DFDE49CFC800312043630D507C3E45E
:060422009FFFE49EFE2294
:0E042800C3E49FFFE49EFEE49DFDE49CFC22E5
:10043600BC000BBE0029EF8DF084FFADF022E4CCAA
:10044600F875F008EF2FFFEE33FEEC33FCEE9DEC73
:10045600984005FCEE9DFE0FD5F0E9E4CEFD22EDB9
:10046600F8F5F0EE8420D21CFEADF075F008EF2F03
:10047600FFED33FD4007985006D5F0F222C398FDF4
:050486000FD5F0EA2291
:00000001FF
