:1007F000202057656C636F6D6520205455202020A4
:1008000000446574656374696F6E207379737465F1
:020810006D0079
:10079800040C000000000410000000000408000021
:1007A80000000D1E00000000000000000000000016
:0D07B80000041841C800000414453E730AF7
:10076A007FA7EFD394007480948040217EABEED3B0
:10077A0094007480948040127D10EDD394007480AC
:0D078A00948040031D80F31E80E41F80D585
:01079700223F
:10049600120812AC1CAD1DE412032AE4FBFA79A083
:1004A6007840120106E4FBFA7980784312020F8F36
:1004B6000F8E0E8D0D8C0CE4FBFA79207841AF1B64
:1004C600AE1AAD19AC1812020FE4FBFA79C878C15E
:1004D6001200157B527A49799D78BC120106AB0F42
:1004E600AA0EA90DA80C1200158F0B8E0A8D098C69
:1004F600087F857E6B7D587CC4AB0BAA0AA909A828
:1005060008120106AB17AA16A915A8141200158F12
:10051600138E128D118C10E4FFFEFDFCAB13AA1294
:10052600A911A8101202AC60025009E4F513F512E5
:10053600F511F5107F007E807D3B7C45AB13AA123A
:10054600A911A8101202AC400C7513007512807523
:06055600113B7510452267
:10055C00AF13AE12AD11AC10120363AB07AA067C3D
:10056C00037DE81203FDEF2430F51E7C037DE8AF1C
:10057C0003AE021203FD7E007F64CFCDCFCECCCE76
:10058C001203FDEF2430F51FAF13AE12AD11AC10FA
:10059C00120363AB07AA067C007D641203FD7E0088
:1005AC007F0ACFCDCFCECCCE1203FDEF2430F52079
:1005BC007C007D0AAF03AE021203FDED2430F52161
:1005CC00AB1E7D017F03120827AB1F7D017F041238
:1005DC000827AB207D017F05120827AB217D017F09
:0D05EC0006120827AB227D017F07020827B9
:10068500758902758C14E4F58A75A882D28C7590EB
:100695003F1206F87BFF7A0779F0E4FDFF12073178
:1006A5007BFF7A0879017D01E4FF12073112076AA1
:1006B5007F011208627B547D01E4FF1208277B55F8
:1006C5007D017F011208277B3D7D017F02120827EE
:1006D5007B707D017F081208277B707D017F0912E1
:1006E50008277B6D7D017F0A1208271204961205E3
:0306F5005C80F82E
:03000B00020008E8
:03000800B293327E
:10081200C292D292C2923091FDD290AFB0751C00BA
:050822008F1DC29022B1
:0407C6007F057E002D
:1007CA00E4F534F5358E348F35D3E5359400E534C8
:1007DA00940040117FFF7E0012083CE53515357004
:0507EA00E8153480E475
:0107EF0022E7
:10083C00E4FDFCC3ED9FEC9E5008000DBD00010CC7
:02084C0080F139
:01084E002287
:1006F800E4F5A0D2827F05FE1207CA7F381208628D
:100708001207C67F381208621207C67F38120862BD
:100718007F381208627F081208627F011208627F20
:09072800061208627F0C0208624F
:05000300C281C2802251
:05088F00D281C28022AD
:05089400C281D28022A8
:100862008F3412088240FB8534A0120003020899DB
:100872008F3312088240FB8533A012089402089934
:05089900C282D28222A0
:10084F008F33ED60034333404333801207C6AF331A
:03085F000208622A
:100827008F308D318B321207C6AD31AF3012084F82
:05083700AF320208725F
:100731008F2B8D2C8B2D8A2E892FAB2DAA2EA92F95
:100741001203E460231207C6AF2B052BAB2DAA2E93
:10075100A92F1203E4FBAD2C1208277401252FF5F4
:090761002FE4352EF52E80D22282
:0D08820075A0FF12088F120899E5A033221F
:10000E000203CFE86480F8E933E83360110460F04E
:10001E00ED33EC337009E8FCE9FDEAFEEBFF220458
:10002E0060DED3EB9FEA9EE99DE8C2E78CF0C2F753
:10003E0095F0400CE8CCF8E9CDF9EACEFAEBCFFB1F
:10004E0012039A85D0F05804700320D5B3E80470DB
:10005E00075002B2D50203D992D5EC0460F7E4CC76
:10006E00C0E0C398F8603B94186008400DD0E0FBE8
:10007E000203B1E4FBFAC9FC8028E830E406E4C9C7
:10008E00FBE4CAFCE830E305E4C9CACBFCE854073C
:10009E006010F8C3E913F9EA13FAEB13FBEC13FC47
:1000AE00D8F130F52FC3E49CFCEF9BFFEE9AFEEDEA
:1000BE0099FDD0E0FBEF4E4D4C701222DB03020394
:1000CE00D6EC2CFCEF33FFEE33FEED33FDED30E7D7
:1000DE00EB0203B1EF2BFFEE3AFEED39FDD0E0FB64
:1000EE0050130BBB00030203D9ED13FDEE13FEEF0D
:0800FE0013FFEC13FC0203B137
:10010600EC4D6011E8497017ED33EC3304600DE4F3
:10011600FCFFFEFD22E933E8330470F80203CF1238
:10012600039A58046009E4CC248150062850090239
:1001360003D92840030203D6C0E0EB4A7044B980D5
:1001460006D0E0FB0203C5EF4E701CBD8008EBFF36
:10015600EAFEE9FD80EBE98DF0A4FEE5F00201EF91
:10016600E9CDF9EAFEEBFFEF89F0A4FCE5F0CE89D4
:10017600F0A42EFFE435F0CD89F0A42DFEE435F091
:100186008067EF4E7005BD80D780C3EF8BF0A4ACBF
:10019600F0EE8BF0A42CFCE435F0F8EF8AF0A42CFA
:1001A600E5F038FCE433CB8DF0A42CFCE5F03BF80D
:1001B600EE8AF0A42CFCE5F038F8E433CF89F0A4FD
:1001C6002CFCE5F038CF3400CE89F0A42FFFE5F003
:1001D6003EFEE433C98DF0A42EFEE5F039CD8AF05B
:1001E600A42FFFE5F03EFEE43DFD33D0E0FB5007D3
:1001F6000BBB000F0203D9EC2CFCEF33FFEE33FEF2
:06020600ED33FD0203B11F
:10020C000203D9EC5D046005E8590470030203CFC6
:10021C0012039A580460F6EC4860F2EC7004FDFE90
:10022C00FF22C860DB2481C85009C39860025006C5
:10023C000203D69850CAF582E9294B4A7005AB8265
:10024C000203C575F0007C1A7880C3EF9BEE9AED23
:10025C0099400DC3EF9BFFEE9AFEED99FDE842F03D
:10026C00DC23ACF0D0E0FFD0E0FED0E0FDAB822090
:10027C00E7101BEB60BAEC2CFCEF33FFEE33FEED1A
:10028C0033FD0203B1E803F830E705C0F075F00068
:10029C00EF2FFFEE33FEED33FD40B830E7C280AAFE
:1002AC0074F8CC6480CCC86480C8F58204604FC3F9
:1002BC00EB9FF5F0EA9E42F0E99D42F0E89C45F098
:1002CC00603C501DE5825FFFE582D313CB5BCBF422
:1002DC002B5582FB50280ABA002409B9002008804B
:1002EC001DE5825BFBE582D313CF5FCFF4C3132FE5
:1002FC005582FF50090EBE00050DBD00010CC3EB6D
:10030C009FF5F0EA9E42F0E99D42F0E89C45F060D2
:09031C0007CC4820E701B3EC22F4
:1003250075F020800E75F010800575F0087D007E53
:10033500007F003392D530D503120433EC334010DF
:10034500EF33FFEE33FEED33FDEC33FCD5F0ED225C
:0E035500E5F0247EA2D513CC92E7CDCEFF2298
:10036300EDD2E7CD33EC3392D524814006E4FFFE92
:10037300FDFC22FCE4CFCECDCC24E0501174FF80F1
:10038300EDC3CC13CCCD13CDCE13CECF13CF04708E
:07039300F030D5DE02043357
:10039A00E9D2E7C933E833F892D5EDD2E7CD33ECA9
:0703AA0033FC5002B2D52222
:1003B100EC30E7100FBF000C0EBE00080DBD0004AD
:1003C1000BEB6014A2D5EB13FCED92E7FD2274FF59
:1003D100FCFDFEFF22E480F8A2D574FF13FC7D80B2
:0303E100E480EFC6
:030000000205F9FD
:0C05F900787FE4F6D8FD758135020640DD
:1003E400BB010689828A83E0225002E722BBFE0217
:0903F400E32289828A83E493224A
:1003FD00C2D5EC30E709B2D5E4C39DFDE49CFCEE1B
:10040D0030E715B2D5E4C39FFFE49EFE120441C34D
:10041D00E49DFDE49CFC800312044130D507C3E448
:06042D009FFFE49EFE2289
:0E043300C3E49FFFE49EFEE49DFDE49CFC22DA
:10060500020685E493A3F8E493A34003F68001F280
:1006150008DFF48029E493A3F85407240CC8C333F6
:10062500C4540F4420C8834004F456800146F6DFC5
:10063500E4800B0102040810204080900798E47EB6
:10064500019360BCA3FF543F30E509541FFEE493BA
:10065500A360010ECF54C025E060A840B8E493A381
:10066500FAE493A3F8E493A3C8C582C8CAC583CAAC
:10067500F0A3C8C582C8CAC583CADFE9DEE780BE64
:0107C5000033
:10044100BC000BBE0029EF8DF084FFADF022E4CC9F
:10045100F875F008EF2FFFEE33FEEC33FCEE9DEC68
:10046100984005FCEE9DFE0FD5F0E9E4CEFD22EDAE
:10047100F8F5F0EE8420D21CFEADF075F008EF2FF8
:10048100FFED33FD4007985006D5F0F222C398FDE9
:050491000FD5F0EA2286
:00000001FF
