:030000000205DA1C
:0C05DA00787FE4F6D8FD75814702062109
:0D095500007F087E017DF3DDFEDEFCDFFA91
:010962002272
:04081B007F057E00D7
:10081F00E4F50FF5108E0F8F10D3E5109400E50F50
:10082F00940040117FFF7E001208DAE5101510705A
:05083F00E8150F80E444
:010844002291
:1008DA00E4FDFCC3ED9FEC9E5008000DBD00010C29
:0208EA0080F19B
:0108EC0022E9
:10071800E4F580D2A27F05FE12081F7F3812093542
:1007280012081B7F3812093512081B7F3812093549
:100738007F381209357F081209357F011209357F84
:09074800061209357F0C02093587
:05098200C2A1C2A02289
:05098700D2A1C2A02274
:05098C00C2A1D2A0226F
:100935008F0F12096340FB850F801209820209910E
:100945008F0E12096340FB850E8012098C020991F6
:05099100C2A2D2A22267
:1008ED008F0EED6003430E40430E8012081BAF0EBA
:0308FD00020935B8
:0A0970008B0D1208EDAF0D020945D2
:100751008F088D098B0A8A0B890CAB0AAA0BA90C8D
:100761001203D9602312081BAF080508AB0AAA0BB4
:10077100A90C1203D9FBAD091209707401250CF5FE
:090781000CE4350BF50B80D222CB
:0D0963007580FF120987120991E58033228B
:1007EF008F118D128B131208C4AF111206D3200074
:1007FF0002C322AF121206D3200002C322AF13127C
:0C080F0006D3200002C322120924D322C9
:10088C008F088D091208C4AF081206D3200002C3CA
:10089C0022AF091206D3200002C322120924D3224C
:02086A008F08F5
:10086C001208C4E50804FF1206D32000037F0022FF
:0F087C001207C28F09D2011208AC120924AF096A
:01088B00224A
:1008C400D29700D2960000000000C29700000000FA
:0608D40000C296000022A4
:10092400C29700D2960000000000D2970000000099
:0109340022A0
:1006D300E4FEEEC39408748094805020A806EF08CB
:1006E3008002C333D8FC30E704D2978002C297005C
:1006F300D2960000000000C2960E80D60000D2976A
:100703000000D296000000309704C2008002D2009D
:04071300C29600008A
:0107170022BF
:1007C200E4FFD297FEEEC39408748094805019001F
:1007D200C2960000000000D2960000EF25E0FF3034
:0C07E20097010F00000E80DDC2960000A1
:0107EE0022E8
:1008AC00200104C2978002D297000000D29600006B
:0808BC00000000C296000022BA
:10084500202057656C636F6D65202054552020006E
:10085500446574656374696F6E2073797374656D2F
:050865000054553D00A8
:10078A0002390000042100000000042900000000D2
:10079A00042D000000000425000000000D3B0000AD
:1007AA000000000000000000000000043541C800FD
:0707BA00000431453E730A03
:100900007D407F9012088C7F9012086A7539008FA5
:020910003A2289
:10048B00120900AC39AD3AEC12031FE4FBFA79A068
:10049B0078401200FBE4FBFA798078431202048F58
:1004AB002C8E2B8D2A8C29E4FFFE7DC87CC1AB38AA
:1004BB00AA37A936A83512000A7B527A49799D785A
:1004CB00BC1200FBAB2CAA2BA92AA82912000A8F5D
:1004DB00288E278D268C257F857E6B7D587CC4AB23
:1004EB0028AA27A926A8251200FBAB34AA33A932C8
:1004FB00A83112000A8F308E2F8D2E8C2DE4FFFE2B
:10050B00FDFCAB30AA2FA92EA82D1202A160025020
:10051B0009E4F530F52FF52EF52D7F007E807D3B20
:10052B007C45AB30AA2FA92EA82D1202A1400C7529
:10053B003000752F80752E3B752D45AF30AE2FAD2E
:10054B002EAC2D120358AB07AA067C037DE81203D1
:10055B00F2EF2430F53B7C037DE8AF03AE021203D0
:10056B00F27E007F64CFCDCFCECCCE1203F2EF2440
:10057B0030F53CAF30AE2FAD2EAC2D120358AB0780
:10058B00AA067C007D641203F27E007F0ACFCDCFDA
:10059B00CECCCE1203F2EF2430F53D7C007D0AAFBA
:1005AB0003AE021203F2ED2430F53EAB3BE4FD7FCC
:1005BB0003120970AB3CE4FD7F04120970AB3DE400
:0F05CB00FD7F05120970AB3EE4FD7F060209704B
:10091200759850758920758DFD758BFDE4F587D22C
:020922008E2223
:08097A008F993099FDC299220A
:100666001207181209127BFF7A087945E4FDFF127A
:1006760007517BFF7A0879557D01E4FF1207511275
:1006860009557F011209357BFF7A087966E4FDFF7B
:100696001207517B70E4FD7F081209707B70E4FD40
:1006A6007F091209707B6DE4FD7F0A12097012043E
:1006B6008BE4FDFC743B2DF8E6FF12097A0DBD00B4
:0D06C600010CED64054C70EC12095580E14B
:100003000203C4E86480F8E933E83360110460F064
:10001300ED33EC337009E8FCE9FDEAFEEBFF220463
:1000230060DED3EB9FEA9EE99DE8C2E78CF0C2F75E
:1000330095F0400CE8CCF8E9CDF9EACEFAEBCFFB2A
:1000430012038F85D0F05804700320D5B3E80470F1
:10005300075002B2D50203CE92D5EC0460F7E4CC8C
:10006300C0E0C398F8603B94186008400DD0E0FBF3
:100073000203A6E4FBFAC9FC8028E830E406E4C9DD
:10008300FBE4CAFCE830E305E4C9CACBFCE8540747
:100093006010F8C3E913F9EA13FAEB13FBEC13FC52
:1000A300D8F130F52FC3E49CFCEF9BFFEE9AFEEDF5
:1000B30099FDD0E0FBEF4E4D4C701222DB0302039F
:1000C300CBEC2CFCEF33FFEE33FEED33FDED30E7ED
:1000D300EB0203A6EF2BFFEE3AFEED39FDD0E0FB7A
:1000E30050130BBB00030203CEED13FDEE13FEEF23
:0800F30013FFEC13FC0203A64D
:1000FB00EC4D6011E8497017ED33EC3304600DE4FF
:10010B00FCFFFEFD22E933E8330470F80203C4124E
:10011B00038F58046009E4CC24815006285009024F
:10012B0003CE2840030203CBC0E0EB4A7044B980F6
:10013B0006D0E0FB0203BAEF4E701CBD8008EBFF4C
:10014B00EAFEE9FD80EBE98DF0A4FEE5F00201E4A7
:10015B00E9CDF9EAFEEBFFEF89F0A4FCE5F0CE89DF
:10016B00F0A42EFFE435F0CD89F0A42DFEE435F09C
:10017B008067EF4E7005BD80D780C3EF8BF0A4ACCA
:10018B00F0EE8BF0A42CFCE435F0F8EF8AF0A42C05
:10019B00E5F038FCE433CB8DF0A42CFCE5F03BF818
:1001AB00EE8AF0A42CFCE5F038F8E433CF89F0A408
:1001BB002CFCE5F038CF3400CE89F0A42FFFE5F00E
:1001CB003EFEE433C98DF0A42EFEE5F039CD8AF066
:1001DB00A42FFFE5F03EFEE43DFD33D0E0FB5007DE
:1001EB000BBB000F0203CEEC2CFCEF33FFEE33FE08
:0601FB00ED33FD0203A636
:100201000203CEEC5D046005E8590470030203C4E7
:1002110012038F580460F6EC4860F2EC7004FDFEA6
:10022100FF22C860DB2481C85009C39860025006D0
:100231000203CB9850CAF582E9294B4A7005AB827B
:100241000203BA75F0007C1A7880C3EF9BEE9AED39
:1002510099400DC3EF9BFFEE9AFEED99FDE842F048
:10026100DC23ACF0D0E0FFD0E0FED0E0FDAB82209B
:10027100E7101BEB60BAEC2CFCEF33FFEE33FEED25
:1002810033FD0203A6E803F830E705C0F075F0007E
:10029100EF2FFFEE33FEED33FD40B830E7C280AA09
:1002A10074F8CC6480CCC86480C8F58204604FC304
:1002B100EB9FF5F0EA9E42F0E99D42F0E89C45F0A3
:1002C100603C501DE5825FFFE582D313CB5BCBF42D
:1002D1002B5582FB50280ABA002409B90020088056
:1002E1001DE5825BFBE582D313CF5FCFF4C3132FF0
:1002F1005582FF50090EBE00050DBD00010CC3EB78
:100301009FF5F0EA9E42F0E99D42F0E89C45F060DD
:0903110007CC4820E701B3EC22FF
:10031A0075F020800E75F010800575F0087D007E5E
:10032A00007F003392D530D503120428EC334010F5
:10033A00EF33FFEE33FEED33FDEC33FCD5F0ED2267
:0E034A00E5F0247EA2D513CC92E7CDCEFF22A3
:10035800EDD2E7CD33EC3392D524814006E4FFFE9D
:10036800FDFC22FCE4CFCECDCC24E0501174FF80FC
:10037800EDC3CC13CCCD13CDCE13CECF13CF047099
:07038800F030D5DE0204286D
:10038F00E9D2E7C933E833F892D5EDD2E7CD33ECB4
:07039F0033FC5002B2D5222D
:1003A600EC30E7100FBF000C0EBE00080DBD0004B8
:1003B6000BEB6014A2D5EB13FCED92E7FD2274FF64
:1003C600FCFDFEFF22E480F8A2D574FF13FC7D80BD
:0303D600E480EFD1
:1005E600020666E493A3F8E493A34003F68001F2BF
:1005F60008DFF48029E493A3F85407240CC8C33316
:10060600C4540F4420C8834004F456800146F6DFE4
:10061600E4800B010204081020408090078AE47EE3
:10062600019360BCA3FF543F30E509541FFEE493D9
:10063600A360010ECF54C025E060A840B8E493A3A0
:10064600FAE493A3F8E493A3C8C582C8CAC583CACB
:10065600F0A3C8C582C8CAC583CADFE9DEE780BE83
:0107C1000037
:1003D900BB010689828A83E0225002E722BBFE0222
:0903E900E32289828A83E4932255
:1003F200C2D5EC30E709B2D5E4C39DFDE49CFCEE26
:1004020030E715B2D5E4C39FFFE49EFE120436C363
:10041200E49DFDE49CFC800312043630D507C3E45E
:060422009FFFE49EFE2294
:0E042800C3E49FFFE49EFEE49DFDE49CFC22E5
:10043600BC000BBE0029EF8DF084FFADF022E4CCAA
:10044600F875F008EF2FFFEE33FEEC33FCEE9DEC73
:10045600984005FCEE9DFE0FD5F0E9E4CEFD22EDB9
:10046600F8F5F0EE8420D21CFEADF075F008EF2F03
:10047600FFED33FD4007985006D5F0F222C398FDF4
:050486000FD5F0EA2291
:00000001FF
