:020000040800F2
:10000000B80800209D010008C30C00085B0C000824
:10001000C10C0008ED070008ED2A000800000000F0
:10002000000000000000000000000000912900080E
:10003000890A000800000000552900084D2A000820
:10004000B7010008B7010008B7010008B7010008B0
:10005000B7010008B7010008B7010008B7010008A0
:10006000B7010008B7010008B7010008B701000890
:10007000B7010008B7010008B7010008B701000880
:10008000B7010008B7010008B7010008B701000870
:10009000B7010008B7010008B7010008B701000860
:1000A000B7010008B7010008B7010008B701000850
:1000B000B7010008B7010008B7010008B701000840
:1000C000B7010008B7010008B7010008B701000830
:1000D000B7010008B7010008B7010008B701000820
:1000E000B7010008B7010008B7010008B701000810
:1000F000B7010008B7010008B7010008B701000800
:10010000B7010008B7010008B7010008B7010008EF
:10011000B7010008B7010008B7010008B7010008DF
:10012000B7010008B7010008B7010008B7010008CF
:10013000B7010008B7010008B7010008B7010008BF
:10014000B7010008B7010008B7010008B7010008AF
:10015000B7010008B7010008B7010008B70100089F
:10016000B7010008B7010008B7010008B70100088F
:10017000B7010008B7010008B7010008B70100087F
:10018000B7010008B7010008DFF80CD000F00CFB45
:1001900000480047F5330008B808002006488047AB
:1001A00006480047FEE7FEE7FEE7FEE7FEE7FEE75C
:1001B000FEE7FEE7FEE7FEE7912A00088901000856
:1001C0002DE9FE4F804681EA0300C00F0C460090E7
:1001D00021F0004123F00045B8EB0200A94105D20F
:1001E0004046214690461C460B46024623F00040FE
:1001F000104347D0270DC7F30A00C3F30A510290FA
:10020000401A019040286BDAC3F3130040F4801BBE
:100210000098924620B10023D2EB030A63EB0B0B4C
:1002200001985946C0F14002504600F0D8F9064600
:100230000D4650465946019A00F0E0F910EB0800CF
:100240006141002487EA115284EAE7731A4340D0DF
:10025000009A62B3019A012A4FEA075215DC001B8B
:1002600061EB02014FF0004202EA0752CDE9004281
:10027000001C41F5801132462B4600F017FA03B0FE
:10028000BDE8F08F40462146F9E7001B61EB020113
:10029000001C41F5801300185B412018A2F50017DF
:1002A00047EB030140EAD570B6196D4111E06D08C6
:1002B0004FEA360645EAC0754FEA0752001B61EB6C
:1002C0000201001C41F5801149084FEA3000001975
:1002D000514132462B4603B0BDE8F04F00F0D7B98C
:1002E0000098012240000023D0EB020263EBE07390
:1002F000009821464FEAE074B8EB000061EB04017E
:10030000E9E783F000435BE781F0004158E72DE91E
:10031000FE4F81EA030404F0004421F00041009400
:100320004FF0000B23F0004350EA01045ED052EA84
:1003300003045BD0C3F30A54C1F30A552C44A4F25E
:10034000F3340194A0FB0254C1F3130141F4801172
:10035000C3F3130343F4801301FB024400FB034E79
:10036000840A970A44EA815447EA8357A4FB076842
:1003700002958D0A05FB07854FEA932C04FB0C546C
:100380002705029D4FEA065847EA1637B5EB0805E0
:100390006EEB070C870E920E47EA811742EA831232
:1003A000A7FB0201B6EB0B0164EB00042B0D43EA43
:1003B0000C335E1844EB1C50DA465146E7FB020151
:1003C000C5F313044FEA0B3343EA14534FEA0432E4
:1003D000019C43EA0603A4F10C040294009CCDE9BD
:1003E00000B400F063F903B0BDE8F08F00200146CF
:1003F000F9E72DE9F04D81EA030404F0004B21F008
:10040000004514464FF0000A23F0004150EA05026F
:1004100020D054EA01021DD0C5F30A570246C5F3A5
:100420001303C1F31300C1F30A5640F4801543F4DB
:100430008013A7EB0608101BD64608F2FD3873EBB5
:10044000050002D308F1010801E092185B41B8F100
:10045000000F03DA00200146BDE8F08D00204FF4C4
:100460008011064684460EE0171B73EB050705D383
:10047000121B63EB050306434CEA010C49084FEAE3
:10048000300092185B4150EA0107EDD152EA0300B7
:1004900012D082EA040083EA0501084305D0101B4C
:1004A000AB4106D20122002306E000224FF00043B8
:1004B00002E06FF0010253101AEB06004CEB0851FA
:1004C00010EB0A0041EB0B01BDE8F04D00F0DFB886
:1004D0000EB5C10F80EAE0700844CA07002140F25F
:1004E00033438DE80E000A460B4600F0DFF803B0F8
:1004F00000BD00F0004230F000400AD0C10D01F50F
:100500006071C0F3160042EA0151C208400711436E
:10051000704700200146704701F0004330B421F0DD
:10052000004150EA010206D00A0DA2F56072C1F343
:100530001301002A02DC30BC00207047440F44EA5B
:10054000C104C100E01830BC00EBC25000F068B834
:1005500030B50B46014600202022012409E021FA93
:1005600002F59D4205D303FA02F5491B04FA02F590
:100570002844151EA2F10102F1DC30BD2DE9F05F27
:100580000546002092469B46884606468146402402
:100590001BE0284641464746224600F017F95346DD
:1005A0005A46C01A914110D311461846224600F00F
:1005B00016F82D1A67EB01084F462246012000214C
:1005C00000F00DF817EB00094E41201EA4F10104C4
:1005D000DFDC484631462A464346BDE8F09F202AE4
:1005E00004DB203A00FA02F1002070479140C2F18A
:1005F000200320FA03F3194390407047202A06DBBA
:10060000CB17203A41FA02F043EAE07306E041FAE0
:1006100002F3D040C2F120029140084319467047CE
:100620000029A8BF7047401C490008BF20F0010006
:10063000704710B4B0FA80FC00FA0CF050EA0104E4
:1006400004BF10BC704749B1CCF1200421FA04F476
:1006500011FA0CF118BF012121430843A3EB0C014F
:10066000CB1D4FEA00614FEA102042BF002010BCB2
:10067000704700EBC35010440029A4BF10BC704762
:10068000401C490008BF20F0010010BC704710B5A5
:10069000141E73F1000408DA401C41F100019218A5
:1006A0005B411A4301D120F0010010BD2DE9F04D4E
:1006B00092469B4611B1B1FA81F202E0B0FA80F2A3
:1006C00020329046FFF78BFF04460F4640EA0A00AF
:1006D00041EA0B0153465A46084313D0114653EAE8
:1006E000010019D0C8F14002504600F06FF80546ED
:1006F0000E46504659464246FFF771FF084305D063
:10070000012004E020463946BDE8F08D0020054375
:1007100046EAE0762C4337430A986305E40AA0EBE7
:1007200008000022FD0A44EA47540A3002D500209E
:100730000146E9E7010510196941DDE9084500199D
:100740006941BDE8F04DA2E7C1F30A52C1F31301BC
:1007500040F2FF3341F480119A4202DA0020014650
:10076000704740F233439A42A2F2334202DC5242D3
:1007700000F02CB8FFF733BF30B5041E71F1000450
:1007800004DB4FF00044404264EB0101141E73F19E
:10079000000405DB1C464FF00043524263EB0403A8
:1007A000994208BF904230BD064C074D06E0E06814
:1007B00040F0010394E8070098471034AC42F6D3A8
:1007C000FFF7E6FC1C5100083C510008202A04DB1E
:1007D000203A21FA02F00021704721FA02F3D040BA
:1007E000C2F120029140084319467047FEE700001D
:1007F0000648016841F080710160054800214160B0
:10080000016841F00101016070470000FCED00E06B
:10081000001000E00148406870470000001000E050
:1008200001B50022FFF7E4FF0D480E490068B0FB58
:10083000F1F300984343FFF7EDFF0146FFF7EAFFAE
:100840008842FBD003D9A0EB01010A4403E06FEA20
:10085000010101440A4401469A42EFD308BD000059
:100860000000002040420F0010B52DED028B00F07B
:10087000C5F800F06BF8CC2000F0D8F8442000F068
:10088000D5F800F0BBF800F061F8CC2000F0CEF80D
:10089000BE2000F0CBF800F0A3F8044600F0A0F86A
:1008A000000200B220439FED0F8B00280EDAC043F8
:1008B000401CFFF70DFE53EC182BFFF728FDFFF748
:1008C0002BFE00EE100ABDEC028B10BDFFF700FE00
:1008D00053EC182BFFF71BFDFFF71EFE00EE100A6E
:1008E000F1E70000000000000000B03F1CB501214E
:1008F000102002F031F80820009000208DF804004C
:100900008DF8070002208DF805006946014800F0C7
:100910004BF91CBD001002401CB50121102002F053
:100920001BF80820009001208DF8040000218DF8AC
:1009300006108DF8070002208DF805006946024870
:1009400000F032F91CBD00000010024070B5002418
:10095000FFF7CCFF124D04E0641CE4B20120FFF766
:100960005FFF0821284600F06DF908B1642CF3D32D
:10097000642C01D3012070BD002404E0641CE4B2A7
:100980000120FFF74DFF0821284600F05BF908B968
:10099000F02CF3D3F02C01D3012070BD002070BDEA
:1009A0000010024010B5FFF7B7FF0C4C082120469D
:1009B00000F04FF90A20FFF733FFFFF797FF0821F8
:1009C000204600F03FF9012805D000242D20FFF734
:1009D00027FF204610BD0124F8E700000010024068
:1009E00070B500250024FFF7DDFFA0402843C5B205
:1009F000641CE4B2082CF6D3284670BD10B5FFF78E
:100A00008BFF094C0821204600F023F940F2EE202C
:100A1000FFF706FF0821204600F01DF9BDE8104051
:100A20000F20FFF7FDBE00000010024070B5054624
:100A3000FFF772FF0024134E05F001006D0870B13E
:100A40000821304600F005F90820FFF7E9FE0821EB
:100A5000304600F000F93A20FFF7E2FE0DE00821F1
:100A6000304600F0F6F84620FFF7DAFE082130465F
:100A700000F0F1F80220FFF7D3FE641CE4B2082C6A
:100A8000DAD370BD00100240704701B502E0009853
:100A9000401E009000980028F9D108BD8000A0F108
:100AA000C040002904D0016841F001010160704795
:100AB0000168024A1140016070470000FEFF0F000C
:100AC00070B501688900A1F1C0410B68344A134038
:100AD000D0E901242243D0E903452C432243446951
:100AE000224384692243C4692243046A2243446A3C
:100AF0002243846A2243C46A2243046B22431A437A
:100B00000A608168082907D101688900A1F1C04104
:100B10000A6842F040020A600168491C8A00A2F19A
:100B2000C042116801F04044416BD1E9003543EA0D
:100B300005138D688E892D0245EA06452B430D8AE3
:100B400043EA05530D7D896943EA05630B4323435B
:100B50001360C16AB1F5804F08D000686FF0704132
:100B60008000A0F1C040C0F8041170BD0168890088
:100B7000A1F1C041D1F804210A4B1A40806BD0E9A1
:100B8000003443EA041384688589240244EA054456
:100B90008069234303431343C1F8043170BD00004F
:100BA0008000F7FF0000F0CF2DE9F041002201277F
:100BB0004FF0030C07FA02F50B682B40AB422CD127
:100BC000066853000CFA03F4A64306600E79D0F8C9
:100BD00000809E4046EA080606600E79012E01D08C
:100BE000022E12D18668A64386604E79D0F808801E
:100BF0009E4046EA080686604668AE434660456801
:100C00008E799640B6B235434560C568A543C56048
:100C1000CC799C40C3681C43C460521C102AC9D3C1
:100C2000BDE8F08110B54B07DB0E9A40C90800EB18
:100C30008100016A0F249C40A1430162016A1143B3
:100C4000016210BD0246002012690A4200D0012054
:100C500070474183704701837047FEE70148C068D1
:100C600070470000540000202DE9FC4101212020A4
:100C700001F072FE4024009401208DF80400002150
:100C80008DF806108DF807008DF805100B4F69469A
:100C90003846FFF789FF8026009669463846FFF7F9
:100CA00083FFA500009569463846FFF77DFF03489E
:100CB0001830048006800580BDE8FC8100140240E5
:100CC000FEE77047054A4FF40071002802D0104635
:100CD000FFF7C1BF1046FFF7BCBF00000014024081
:100CE00070B514461D462B46224600F023FA0449EF
:100CF00004FB05F00989BDE8704000F099B80000D8
:100D00005400002001B502E00098401E00900098B9
:100D10000028F9D108BD00002DE9F043203A97B230
:100D2000194EF568AA88EB8802FB03F44FEAE47CCD
:100D300004EB5C74C4F3C7042D6807FB045500F092
:100D4000F9F94FF430504FF0D04CACF800000021CE
:100D500015E00020F3883289802715F8018027FAF2
:100D600000F918EA090F02D0ACF8023001E0ACF843
:100D70000220401CC0B20828EFD3491CC9B2A142CE
:100D8000E7D3BDE8F083000054000020F0B505462D
:100D90000E4600240F4F19E0F8687B8881882144B3
:100DA000994203D90024C18829448DB2C088B988EA
:100DB0002844884201D90024002529462046FFF70F
:100DC000ABFF761CF8688088204484B23278002A11
:100DD000E2D1F0BD5400002000B597B001210846D3
:100DE00001F0C8FD042101910B20039088060790B3
:100DF0000020029004900590069008910990082127
:100E00000A9110210B910C900E900F9010900902F6
:100E1000119112901390149001A81590169008A8A3
:100E2000FFF74EFE01210420FFF738FE17B000BD8A
:100E300010B500224FF430544FF0D0431C8001E035
:100E40005980521C8242FBD310BD00002DE9FC5F8B
:100E50000121782001F080FD4FF000098DF8069007
:100E600001248DF8074002258DF8045003208DF8E9
:100E700005004FF4804ACDF800A069467648FFF798
:100E800093FE0C220E217448FFF7CCFEE003009085
:100E900069467148FFF788FE0C220F216E48FFF764
:100EA000C1FE009469466C48FFF77EFE0C220021CB
:100EB0006948FFF7B7FE009569466748FFF774FE7B
:100EC0000C2201216448FFF7ADFE802000906946A6
:100ED0006248FFF769FE0C2207216048FFF7A2FE77
:100EE0004FF4807BCDF800B069465C48FFF75CFEAC
:100EF0000C2208215948FFF795FE660200966946C4
:100F00005648FFF751FE0C2209215448FFF78AFE8C
:100F1000A702009769465148FFF746FE0C220A21B6
:100F20004E48FFF77FFE4FF40068CDF80080694619
:100F30004A48FFF739FE0C220B214848FFF772FEA2
:100F40002003009069464548FFF72EFE0C2211460B
:100F50004248FFF767FE6003009069463F48FFF78D
:100F600023FE0C220D213D48FFF75CFECDF800A0CA
:100F700069463A48FFF718FE0C220E213748FFF762
:100F800051FEE003009069463448FFF70DFE0C2245
:100F90000F213248FFF746FECDF800B069462E48D3
:100FA000FFF702FE0C2208212B48FFF73BFE0096BC
:100FB00069462948FFF7F8FD0C2209212648FFF76A
:100FC00031FE009769462448FFF7EEFD0C220A2106
:100FD0002148FFF727FE1020009069461E48FFF7C2
:100FE000E3FD0C2204211C48FFF71CFE202000908A
:100FF00069461948FFF7D8FD0C2205211648FFF76E
:1010000011FE0097164F69463846FFF7CDFD0C22BA
:101010000A213846FFF706FE0094124F694638460B
:10102000FFF7C2FD0C2200213846FFF7FBFD8DF8CB
:1010300004408DF806908DF807408DF80550CDF8E6
:10104000008069463846FFF7AFFD0096694638468E
:10105000FFF7AAFDBDE8FC9F000C02400010024013
:10106000001802400014024010B5072841D8234A56
:101070001070C4074FF4F0714FF448733AD05380A6
:1010800091804FF458534FF0D0410B80400148807D
:101090004FF4285008800020488042F60120088044
:1010A0000020488042F6022008805088401EC0F38D
:1010B00007234B8042F603230B80C0B248804FF4D5
:1010C0002C5008800020488042F601300880002023
:1010D000488042F6023008809088401EC0F3072204
:1010E0004A8042F603320A80C0B248804FF4305042
:1010F000088010BD51809380C3E700005400002099
:1011000010B5FFF7A3FEFFF767FE01F00BFC00F040
:1011100040F8074C2078FFF7A7FF0021A3886288DA
:101120000846FFF7DDFDBDE810400120FFF7CABD0E
:101130005400002030B54FF428554FF0D04425809E
:10114000050A658042F601252580C5B2658042F614
:10115000022525801044401E020A62806A1C2280FB
:10116000C0B260804FF42C502080080A608042F6A4
:1011700001302080C8B2608042F602302080C8185A
:10118000401E010A618042F603312180C0B26080B6
:1011900030BD2DE9F0414FF0D0444FF47040208035
:1011A000552060804FF2010001462180AA21618014
:1011B000411C421C228052226280821C831C23809C
:1011C00008236380C31CC51C2580012565804FF45E
:1011D000304525800D2565804BF2010525800D25C4
:1011E00065804BF2020525800D2565804FF4314561
:1011F0002E4626800D2666806E1C6F1C27800D27CC
:101200006780AF1C27800D2767804FF43247278007
:10121000002767804BF201272780002767804BF269
:1012200002272780002767804FF43647BC46A4F882
:1012300000C04FF0440CA4F802C04BF2016CA4F8BB
:1012400000C04FF0440CA4F802C04BF2026CA4F8AA
:1012500000C04FF0440CA4F802C04FF4374CA4F87F
:1012600000C04FF0340CA4F802C04BF2017CA4F88B
:1012700000C04FF0340CA4F802C04BF2027CA4F87A
:1012800000C04FF0340CA4F802C04FF4384CA4F85E
:1012900000C04FF0340CA4F802C04BF6010CA4F8C7
:1012A00000C04FF0340CA4F802C04BF6020CA4F8B6
:1012B00000C04FF0340CA4F802C04FF43F4CA4F827
:1012C00000C04FF0010CA4F802C04FF4334CA4F856
:1012D00000C04FF00F0CA4F802C04BF2013CA4F880
:1012E00000C04FF00F0CA4F802C04BF2023CA4F86F
:1012F00000C04FF00F0CA4F802C04FF4394CA4F812
:1013000000C04FF0340CA4F802C04BF6011CA4F846
:1013100000C04FF0340CA4F802C04BF6021CA4F835
:1013200000C04FF0340CA4F802C04FF4354CE04636
:10133000A4F800804FF00808A4F802804BF201588E
:10134000A4F800804FF00808A4F802804BF202587D
:10135000A4F800804FF00808A4F802804FF4424837
:10136000A4F800804FF00308A4F802804FF43A4834
:10137000A4F800804FF03408A4F802804BF601284E
:10138000A4F800804FF03408A4F802804BF602283D
:10139000A4F800804FF03408A4F802804FF43C48D1
:1013A000A4F800804FF00008A4F802804BF6014832
:1013B000A4F800804FF07808A4F802804BF60248A9
:1013C000A4F800804FF00008A4F802804FF43D48D4
:1013D000A4F800804FF00008A4F802804BF60158F2
:1013E000A4F800804FF07808A4F802804BF6025869
:1013F000A4F800804FF00008A4F802804FF43E48A3
:10140000A4F800804FF00008A4F802804BF60168B1
:10141000A4F800804FF06408A4F802804FF451480B
:10142000A4F800804FF00008A4F802804DF20118E3
:10143000A4F800804FF03308A4F802804DF202189F
:10144000A4F800804FF00008A4F802804DF20318C1
:10145000A4F800804FF03408A4F802804DF204187C
:10146000A4F800804FF00008A4F802804DF205189F
:10147000A4F800804FF03A08A4F802804DF2061854
:10148000A4F800804FF00008A4F802804DF207187D
:10149000A4F800804FF04A08A4F802804DF2081822
:1014A000A4F800804FF00008A4F802804DF209185B
:1014B000A4F800804FF05C08A4F802804DF20A18EE
:1014C000A4F800804FF00008A4F802804DF20B1839
:1014D000A4F800804FF08108A4F802804DF20C18A7
:1014E000A4F800804FF00008A4F802804DF20D1817
:1014F000A4F800804FF0A608A4F802804DF20E1860
:10150000A4F800804FF00008A4F802804DF20F18F4
:10151000A4F800804FF0E508A4F802804DF21018FE
:10152000A4F800804FF00108A4F802804DF21118D1
:10153000A4F800804FF01308A4F802804DF21218AE
:10154000A4F800804FF00108A4F802804DF21318AF
:10155000A4F800804FF05408A4F802804DF214184B
:10156000A4F800804FF00108A4F802804DF215188D
:10157000A4F800804FF08208A4F802804DF21618FB
:10158000A4F800804FF00108A4F802804DF217186B
:10159000A4F800804FF0CA08A4F802804DF2181891
:1015A000A4F800804FF00208A4F802804DF2191848
:1015B000A4F800804FF00008A4F802804DF21A1839
:1015C000A4F800804FF00208A4F802804DF21B1826
:1015D000A4F800804FF00108A4F802804DF21C1816
:1015E000A4F800804FF00208A4F802804DF21D1804
:1015F000A4F800804FF03408A4F802804DF21E18C1
:10160000A4F800804FF00208A4F802804DF21F18E1
:10161000A4F800804FF06708A4F802804DF220186B
:10162000A4F800804FF00208A4F802804DF22118BF
:10163000A4F800804FF08408A4F802804DF222182C
:10164000A4F800804FF00208A4F802804DF223189D
:10165000A4F800804FF0A408A4F802804DF22418EA
:10166000A4F800804FF00208A4F802804DF225187B
:10167000A4F800804FF0B708A4F802804DF22618B5
:10168000A4F800804FF00208A4F802804DF2271859
:10169000A4F800804FF0CF08A4F802804DF228187B
:1016A000A4F800804FF00208A4F802804DF2291837
:1016B000A4F800804FF0DE08A4F802804DF22A184A
:1016C000A4F800804FF00208A4F802804DF22B1815
:1016D000A4F800804FF0F208A4F802804DF22C1814
:1016E000A4F800804FF00208A4F802804DF22D18F3
:1016F000A4F800804FF0FE08A4F802804DF22E18E6
:10170000A4F800804FF00308A4F802804DF22F18CF
:10171000A4F800804FF01008A4F802804DF23018B1
:10172000A4F800804FF00308A4F802804DF23118AD
:10173000A4F800804FF03308A4F802804DF232186C
:10174000A4F800804FF00308A4F802804DF233188B
:10175000A4F800804FF06D08A4F802804FF45248BE
:10176000A4F800804FF00008A4F802804DF2012890
:10177000A4F800804FF03308A4F802804DF202284C
:10178000A4F800804FF00008A4F802804DF203286E
:10179000A4F800804FF03408A4F802804DF2042829
:1017A000A4F800804FF00008A4F802804DF205284C
:1017B000A4F800804FF03A08A4F802804DF2062801
:1017C000A4F800804FF00008A4F802804DF207282A
:1017D000A4F800804FF04A08A4F802804DF20828CF
:1017E000A4F800804FF00008A4F802804DF2092808
:1017F000A4F800804FF05C08A4F802804DF20A289B
:10180000A4F800804FF00008A4F802804DF20B28E5
:10181000A4F800804FF08108A4F802804DF20C2853
:10182000A4F800804FF00008A4F802804DF20D28C3
:10183000A4F800804FF0A608A4F802804DF20E280C
:10184000A4F800804FF00008A4F802804DF20F28A1
:10185000A4F800804FF0E508A4F802804DF21028AB
:10186000A4F800804FF00108A4F802804DF211287E
:10187000A4F800804FF01308A4F802804DF212285B
:10188000A4F800804FF00108A4F802804DF213285C
:10189000A4F800804FF05408A4F802804DF21428F8
:1018A000A4F800804FF00108A4F802804DF215283A
:1018B000A4F800804FF08208A4F802804DF21628A8
:1018C000A4F800804FF00108A4F802804DF2172818
:1018D000A4F800804FF0CA08A4F802804DF218283E
:1018E000A4F800804FF00208A4F802804DF21928F5
:1018F000A4F800804FF00008A4F802804DF21A28E6
:10190000A4F800804FF00208A4F802804DF21B28D2
:10191000A4F800804FF00108A4F802804DF21C28C2
:10192000A4F800804FF00208A4F802804DF21D28B0
:10193000A4F800804FF03408A4F802804DF21E286D
:10194000A4F800804FF00208A4F802804DF21F288E
:10195000A4F800804FF06708A4F802804DF2202818
:10196000A4F800804FF00208A4F802804DF221286C
:10197000A4F800804FF08408A4F802804DF22228D9
:10198000A4F800804FF00208A4F802804DF223284A
:10199000A4F800804FF0A408A4F802804DF2242897
:1019A000A4F800804FF00208A4F802804DF2252828
:1019B000A4F800804FF0B708A4F802804DF2262862
:1019C000A4F800804FF00208A4F802804DF2272806
:1019D000A4F800804FF0CF08A4F802804DF2282828
:1019E000A4F800804FF00208A4F802804DF22928E4
:1019F000A4F800804FF0DE08A4F802804DF22A28F7
:101A0000A4F800804FF00208A4F802804DF22B28C1
:101A1000A4F800804FF0F208A4F802804DF22C28C0
:101A2000A4F800804FF00208A4F802804DF22D289F
:101A3000A4F800804FF0FE08A4F802804DF22E2892
:101A4000A4F800804FF00308A4F802804DF22F287C
:101A5000A4F800804FF01008A4F802804DF230285E
:101A6000A4F800804FF00308A4F802804DF231285A
:101A7000A4F800804FF03308A4F802804DF2322819
:101A8000A4F800804FF00308A4F802804DF2332838
:101A9000A4F800804FF06D08A4F802804FF453487A
:101AA000A4F800804FF00008A4F802804DF201383D
:101AB000A4F800804FF03308A4F802804DF20238F9
:101AC000A4F800804FF00008A4F802804DF203381B
:101AD000A4F800804FF03408A4F802804DF20438D6
:101AE000A4F800804FF00008A4F802804DF20538F9
:101AF000A4F800804FF03A08A4F802804DF20638AE
:101B0000A4F800804FF00008A4F802804DF20738D6
:101B1000A4F800804FF04A08A4F802804DF208387B
:101B2000A4F800804FF00008A4F802804DF20938B4
:101B3000A4F800804FF05C08A4F802804DF20A3847
:101B4000A4F800804FF00008A4F802804DF20B3892
:101B5000A4F800804FF08108A4F802804DF20C3800
:101B6000A4F800804FF00008A4F802804DF20D3870
:101B7000A4F800804FF0A608A4F802804DF20E38B9
:101B8000A4F800804FF00008A4F802804DF20F384E
:101B9000A4F800804FF0E508A4F802804DF2103858
:101BA000A4F800804FF00108A4F802804DF211382B
:101BB000A4F800804FF01308A4F802804DF2123808
:101BC000A4F800804FF00108A4F802804DF2133809
:101BD000A4F800804FF05408A4F802804DF21438A5
:101BE000A4F800804FF00108A4F802804DF21538E7
:101BF000A4F800804FF08208A4F802804DF2163855
:101C0000A4F800804FF00108A4F802804DF21738C4
:101C1000A4F800804FF0CA08A4F802804DF21838EA
:101C2000A4F800804FF00208A4F802804DF21938A1
:101C3000A4F800804FF00008A4F802804DF21A3892
:101C4000A4F800804FF00208A4F802804DF21B387F
:101C5000A4F800804FF00108A4F802804DF21C386F
:101C6000A4F800804FF00208A4F802804DF21D385D
:101C7000A4F800804FF03408A4F802804DF21E381A
:101C8000A4F800804FF00208A4F802804DF21F383B
:101C9000A4F800804FF06708A4F802804DF22038C5
:101CA000A4F800804FF00208A4F802804DF2213819
:101CB000A4F800804FF08408A4F802804DF2223886
:101CC000A4F800804FF00208A4F802804DF22338F7
:101CD000A4F800804FF0A408A4F802804DF2243844
:101CE000A4F800804FF00208A4F802804DF22538D5
:101CF000A4F800804FF0B708A4F802804DF226380F
:101D0000A4F800804FF00208A4F802804DF22738B2
:101D1000A4F800804FF0CF08A4F802804DF22838D4
:101D2000A4F800804FF00208A4F802804DF2293890
:101D3000A4F800804FF0DE08A4F802804DF22A38A3
:101D4000A4F800804FF00208A4F802804DF22B386E
:101D5000A4F800804FF0F208A4F802804DF22C386D
:101D6000A4F800804FF00208A4F802804DF22D384C
:101D7000A4F800804FF0FE08A4F802804DF22E383F
:101D8000A4F800804FF00308A4F802804DF22F3829
:101D9000A4F800804FF01008A4F802804DF230380B
:101DA000A4F800804FF00308A4F802804DF2313807
:101DB000A4F800804FF03308A4F802804DF23238C6
:101DC000A4F800804FF00308A4F802804DF23338E5
:101DD000A4F800804FF06D08A4F802804FF4544836
:101DE000A4F800804FF00008A4F802804DF20148EA
:101DF000A4F800804FF03308A4F802804DF20248A6
:101E0000A4F800804FF00008A4F802804DF20348C7
:101E1000A4F800804FF03408A4F802804DF2044882
:101E2000A4F800804FF00008A4F802804DF20548A5
:101E3000A4F800804FF03A08A4F802804DF206485A
:101E4000A4F800804FF00008A4F802804DF2074883
:101E5000A4F800804FF04A08A4F802804DF2084828
:101E6000A4F800804FF00008A4F802804DF2094861
:101E7000A4F800804FF05C08A4F802804DF20A48F4
:101E8000A4F800804FF00008A4F802804DF20B483F
:101E9000A4F800804FF08108A4F802804DF20C48AD
:101EA000A4F800804FF00008A4F802804DF20D481D
:101EB000A4F800804FF0A608A4F802804DF20E4866
:101EC000A4F800804FF00008A4F802804DF20F48FB
:101ED000A4F800804FF0E508A4F802804DF2104805
:101EE000A4F800804FF00108A4F802804DF21148D8
:101EF000A4F800804FF01308A4F802804DF21248B5
:101F0000A4F800804FF00108A4F802804DF21348B5
:101F1000A4F800804FF05408A4F802804DF2144851
:101F2000A4F800804FF00108A4F802804DF2154893
:101F3000A4F800804FF08208A4F802804DF2164801
:101F4000A4F800804FF00108A4F802804DF2174871
:101F5000A4F800804FF0CA08A4F802804DF2184897
:101F6000A4F800804FF00208A4F802804DF219484E
:101F7000A4F800804FF00008A4F802804DF21A483F
:101F8000A4F800804FF00208A4F802804DF21B482C
:101F9000A4F800804FF00108A4F802804DF21C481C
:101FA000A4F800804FF00208A4F802804DF21D480A
:101FB000A4F800804FF03408A4F802804DF21E48C7
:101FC000A4F800804FF00208A4F802804DF21F48E8
:101FD000A4F800804FF06708A4F802804DF2204872
:101FE000A4F800804FF00208A4F802804DF22148C6
:101FF000A4F800804FF08408A4F802804DF2224833
:10200000A4F800804FF00208A4F802804DF22348A3
:10201000A4F800804FF0A408A4F802804DF22448F0
:10202000A4F800804FF00208A4F802804DF2254881
:10203000A4F800804FF0B708A4F802804DF22648BB
:10204000A4F800804FF00208A4F802804DF227485F
:10205000A4F800804FF0CF08A4F802804DF2284881
:10206000A4F800804FF00208A4F802804DF229483D
:10207000A4F800804FF0DE08A4F802804DF22A4850
:10208000A4F800804FF00208A4F802804DF22B481B
:10209000A4F800804FF0F208A4F802804DF22C481A
:1020A000A4F800804FF00208A4F802804DF22D48F9
:1020B000A4F800804FF0FE08A4F802804DF22E48EC
:1020C000A4F800804FF00308A4F802804DF22F48D6
:1020D000A4F800804FF01008A4F802804DF23048B8
:1020E000A4F800804FF00308A4F802804DF23148B4
:1020F000A4F800804FF03308A4F802804DF2324873
:10210000A4F800804FF00308A4F802804DF2334891
:10211000A4F800804FF06D08A4F802804FF45548F1
:10212000A4F800804FF00008A4F802804DF2015896
:10213000A4F800804FF03308A4F802804DF2025852
:10214000A4F800804FF00008A4F802804DF2035874
:10215000A4F800804FF03408A4F802804DF204582F
:10216000A4F800804FF00008A4F802804DF2055852
:10217000A4F800804FF03A08A4F802804DF2065807
:10218000A4F800804FF00008A4F802804DF2075830
:10219000A4F800804FF04A08A4F802804DF20858D5
:1021A000A4F800804FF00008A4F802804DF209580E
:1021B000A4F800804FF05C08A4F802804DF20A58A1
:1021C000A4F800804FF00008A4F802804DF20B58EC
:1021D000A4F800804FF08108A4F802804DF20C585A
:1021E000A4F800804FF00008A4F802804DF20D58CA
:1021F000A4F800804FF0A608A4F802804DF20E5813
:10220000A4F800804FF00008A4F802804DF20F58A7
:10221000A4F800804FF0E508A4F802804DF21058B1
:10222000A4F800804FF00108A4F802804DF2115884
:10223000A4F800804FF01308A4F802804DF2125861
:10224000A4F800804FF00108A4F802804DF2135862
:10225000A4F800804FF05408A4F802804DF21458FE
:10226000A4F800804FF00108A4F802804DF2155840
:10227000A4F800804FF08208A4F802804DF21658AE
:10228000A4F800804FF00108A4F802804DF217581E
:10229000A4F800804FF0CA08A4F802804DF2185844
:1022A000A4F800804FF00208A4F802804DF21958FB
:1022B000A4F800804FF00008A4F802804DF21A58EC
:1022C000A4F800804FF00208A4F802804DF21B58D9
:1022D000A4F800804FF00108A4F802804DF21C58C9
:1022E000A4F800804FF00208A4F802804DF21D58B7
:1022F000A4F800804FF03408A4F802804DF21E5874
:10230000A4F800804FF00208A4F802804DF21F5894
:10231000A4F800804FF06708A4F802804DF220581E
:10232000A4F800804FF00208A4F802804DF2215872
:10233000A4F800804FF08408A4F802804DF22258DF
:10234000A4F800804FF00208A4F802804DF2235850
:10235000A4F800804FF0A408A4F802804DF224589D
:10236000A4F800804FF00208A4F802804DF225582E
:10237000A4F800804FF0B708A4F802804DF2265868
:10238000A4F800804FF00208A4F802804DF227580C
:10239000A4F800804FF0CF08A4F802804DF228582E
:1023A000A4F800804FF00208A4F802804DF22958EA
:1023B000A4F800804FF0DE08A4F802804DF22A58FD
:1023C000A4F800804FF00208A4F802804DF22B58C8
:1023D000A4F800804FF0F208A4F802804DF22C58C7
:1023E000A4F800804FF00208A4F802804DF22D58A6
:1023F000A4F800804FF0FE08A4F802804DF22E5899
:10240000A4F800804FF00308A4F802804DF22F5882
:10241000A4F800804FF01008A4F802804DF2305864
:10242000A4F800804FF00308A4F802804DF2315860
:10243000A4F800804FF03308A4F802804DF232581F
:10244000A4F800804FF00308A4F802804DF233583E
:10245000A4F800804FF06D08A4F802804FF45648AD
:10246000A4F800804FF00008A4F802804DF2016843
:10247000A4F800804FF03308A4F802804DF20268FF
:10248000A4F800804FF00008A4F802804DF2036821
:10249000A4F800804FF03408A4F802804DF20468DC
:1024A000A4F800804FF00008A4F802804DF20568FF
:1024B000A4F800804FF03A08A4F802804DF20668B4
:1024C000A4F800804FF00008A4F802804DF20768DD
:1024D000A4F800804FF04A08A4F802804DF2086882
:1024E000A4F800804FF00008A4F802804DF20968BB
:1024F000A4F800804FF05C08A4F802804DF20A684E
:10250000A4F800804FF00008A4F802804DF20B6898
:10251000A4F800804FF08108A4F802804DF20C6806
:10252000A4F800804FF00008A4F802804DF20D6876
:10253000A4F800804FF0A608A4F802804DF20E68BF
:10254000A4F800804FF00008A4F802804DF20F6854
:10255000A4F800804FF0E508A4F802804DF210685E
:10256000A4F800804FF00108A4F802804DF2116831
:10257000A4F800804FF01308A4F802804DF212680E
:10258000A4F800804FF00108A4F802804DF213680F
:10259000A4F800804FF05408A4F802804DF21468AB
:1025A000A4F800804FF00108A4F802804DF21568ED
:1025B000A4F800804FF08208A4F802804DF216685B
:1025C000A4F800804FF00108A4F802804DF21768CB
:1025D000A4F800804FF0CA08A4F802804DF21868F1
:1025E000A4F800804FF00208A4F802804DF21968A8
:1025F000A4F800804FF00008A4F802804DF21A6899
:10260000A4F800804FF00208A4F802804DF21B6885
:10261000A4F800804FF00108A4F802804DF21C6875
:10262000A4F800804FF00208A4F802804DF21D6863
:10263000A4F800804FF03408A4F802804DF21E6820
:10264000A4F800804FF00208A4F802804DF21F6841
:10265000A4F800804FF06708A4F802804DF22068CB
:10266000A4F800804FF00208A4F802804DF221681F
:10267000A4F800804FF08408A4F802804DF222688C
:10268000A4F800804FF00208A4F802804DF22368FD
:10269000A4F800804FF0A408A4F802804DF224684A
:1026A000A4F800804FF00208A4F802804DF22568DB
:1026B000A4F800804FF0B708A4F802804DF2266815
:1026C000A4F800804FF00208A4F802804DF22768B9
:1026D000A4F800804FF0CF08A4F802804DF22868DB
:1026E000A4F800804FF00208A4F802804DF2296897
:1026F000A4F800804FF0DE08A4F802804DF22A68AA
:10270000A4F800804FF00208A4F802804DF22B6874
:10271000A4F800804FF0F208A4F802804DF22C6873
:10272000A4F800804FF00208A4F802804DF22D6852
:10273000A4F800804FF0FE08A4F802804DF22E6845
:10274000A4F800804FF00308A4F802804DF22F682F
:10275000A4F800804FF01008A4F802804DF2306811
:10276000A4F800804FF00308A4F802804DF231680D
:10277000A4F800804FF03308A4F802804DF23268CC
:10278000A4F800804FF00308A4F802804DF23368EB
:10279000A4F800804FF06D08A4F802804FF4704850
:1027A000A4F800804FF05508A4F802802080AA20E9
:1027B00060802180522060802280082060802380F9
:1027C00000206080A4F800C0502060802580CC20CC
:1027D00060802680002060802780052060804FF484
:1027E00037402080772060804BF201702080772076
:1027F00060804FF438402080012060804BF601005B
:102800002080032060804BF602002080032060803F
:102810004BF603002080032060804FF43C40208072
:10282000022060804BF601402080002060804BF643
:1028300002402080002060804FF43D402080012035
:1028400060804BF601502080842060804BF602505F
:1028500020801C2060804BF6035020801C2060806C
:102860004BF604502080002060804FF449402080C7
:10287000D02060804CF601102080022060804CF651
:1028800002102080502060804CF6031020805020E1
:1028900060804CF604102080502060804FF4585027
:1028A0002080002060804FF4545020800020608001
:1028B0004FF47F402080AA2060804FF60170208076
:1028C000552060804FF602702080252060804FF6F2
:1028D00003702080012060804FF47C40208016200F
:1028E00060804FF601402080A22060804FF60240B9
:1028F0002080262060804FF4685020800620608071
:102900004FF468502080552060804FF4885020801C
:102910006FF07F40FEF7B9F84FF424502080BDE8F7
:10292000F081000070B50A4D4FF40064214628463E
:10293000FEF78FF940F6FF263046FEF7E3F9214611
:102940002846FEF788F93046BDE87040FEF7DAB950
:102950000014024070470000054A002903D01168A6
:102960000143116070471168814311607047000096
:1029700030380240054A002903D011680143116034
:102980007047116881431160704700003838024079
:10299000704700000CB50022019200922749086898
:1029A00040F4803008604FF4A043086800F4003021
:1029B00000900198401C0190009810B9019898422D
:1029C000F3D10868800302D50120009000E0009256
:1029D0000098012831D119484030026842F08052F5
:1029E00002601748026842F440420260134808300F
:1029F00002680260026842F400420260026842F427
:102A0000A0520260021F0F4B13600A6842F08072EE
:102A10000A600A689201FCD50B4A40F20571116008
:102A2000016821F003010160016841F002010160C9
:102A30000168C1F381010229FAD10CBD00380240BE
:102A40000070004019544007003C024070470000ED
:102A50000C480D490068B0FBF1F0401EB0F1807FDA
:102A600001D301200AE04FF0E0214861074AF0203D
:102A7000107000208861072008610020002800D025
:102A8000FEE770470000002040420F0023ED00E009
:102A900010B51248016841F47001016010480168E6
:102AA00041F0010101600E4A002108321160026804
:102AB0000C4B1A400260031D0B4A1A60026822F494
:102AC0008022026006480C300160FFF763FF034973
:102AD0004FF000608039086010BD000088ED00E014
:102AE00000380240FFFFF6FE10300024FEE7000031
:102AF0000FB4084B10B504A902AA039800F0DEF841
:102B0000044602A9002000F070FC204610BC5DF8CD
:102B100014FB0000EB33000802E008C8121F08C1D4
:102B2000002AFAD170477047002001E001C1121F4E
:102B3000002AFBD1704700002DE9FF5F82B0002121
:102B4000DDE90430020DDDF840B0034318D044F64F
:102B50001050A2F2FF3242431514119801281FD0E1
:102B6000A5EB0B00401C5FEA000A4FF000064E4F39
:102B7000DFF83891B046504615D5CAF1000413E08D
:102B8000119801244AA3012801D16FEA0B01029890
:102B9000119AC0E90031C0E9024206B0BDE8F09FD9
:102BA000CBF10000DFE704460021404A491842EB20
:102BB0000450CDE9001012E0E00707D032463B4652
:102BC00040464946FDF7A3FB8046894632463B46D0
:102BD00010461946FDF79BFB06460F466410002C75
:102BE000EAD1DDE90401DDE90023BAF1000F06DADC
:102BF000FDF78DFB42464B46FDF789FB05E0FDF7EF
:102C0000F8FB42464B46FDF7F4FB04460E46002215
:102C1000284BFDF7B1FD03D84FF0FF30014607E028
:102C20000022254B20463146FDF7CAFAFDF78CFD00
:102C3000102409E0002C0ADB0A220023FDF79EFC89
:102C4000039B30321A55641E50EA0102F2D1641C13
:102C5000039AC4F111031444119A012A03D00122EA
:102C600008430DD10AE0084304D000204FF0110BB7
:102C7000119072E7A3EB0B056D1E0DE05B4504DDC3
:102C80004FF0000205F1010504E003DA4FF0000205
:102C9000A5F10105002AECD002981199C0E9023192
:102CA000C0E9004579E70000000014400000F03F53
:102CB000300000000000F0430000E03F2DE9FF4F2E
:102CC00095B09B468946064600250FE2252877D118
:102CD00000242746F84A0121059400E0044316F831
:102CE000013F203B01FA03F01042F7D130782A2847
:102CF00011D06FF02F033078A0F13002092A16D8D6
:102D0000059A44F0020402EB820203EB42021044F3
:102D1000761C0590EFE759F8042B0592002A03DA98
:102D2000504244F40054059044F00204761C30787C
:102D30002E2816D116F8010F44F004042A280DD0CD
:102D40006FF02F023078A0F13003092B09D807EB80
:102D5000870302EB4303C718761CF3E759F8047B9B
:102D6000761C30786C280FD006DC4C2817D06828E9
:102D70000DD06A2814D104E0742810D07A280FD11D
:102D80000DE044F400140AE044F4801401E044F43B
:102D900040147278824202D104F58014761C761CAD
:102DA000307866280BD013DC582877D009DC00284F
:102DB00075D04528F6D04628F4D047281AD19DE191
:102DC00018E0632835D0642879D0652812D195E1C0
:102DD000702873D008DC6728F1D069286FD06E287E
:102DE0000DD06F2806D1B5E073282CD0752875D08A
:102DF000782874D05A46179990476D1C75E1C4F332
:102E00000250022809D003280DD0D9F80010042858
:102E10000DD00D6009F1040967E1D9F80010EA1737
:102E2000C1E90052F6E7D9F800100D80F2E70D7005
:102E3000F0E719F8041B8DF8001000208DF8010050
:102E4000EA46012003E059F804AB4FF0FF30610778
:102E50004FF0000102D40DE008F101018846B942AB
:102E60000FDA8045F8DB1AF808100029F4D108E0E1
:102E700008F1010188468142FADB1AF8081000299E
:102E8000F6D105985B46A0EB080721463846179A0D
:102E900000F094FA284400EB080507E04DE029E132
:102EA0000DE01AF8010B5A4617999047B8F101083E
:102EB000F7D25B4621463846179A13E142E00A22D0
:102EC0000092C4F302524FF0000A022A08D059F8C7
:102ED00004CB032A4FEAEC710AD00DE029E02AE086
:102EE00009F1070121F00702F2E802C1914609E069
:102EF0000FFA8CFC4FEAEC71042A03D14FFA8CFCD8
:102F00004FEAEC71002907DA0A460021DCF1000CD7
:102F100061EB02012D2202E0220504D52B228DF85F
:102F20000420012203E0E20701D02022F7E79046C7
:102F300059E00A2102E010220DE010214FF0000AB2
:102F400000910BE010224FF0000A44F0040408271F
:102F5000009203E008224FF0000A0092C4F30252EC
:102F6000022A05D059F804CB0021032A08D009E031
:102F700009F1070121F00702F2E802C1914605E0DC
:102F80001FFA8CFC042A01D10CF0FF0C4FF0000852
:102F9000220728D5702806D0009B83F0100353EA3F
:102FA0000A0305D00EE040228DF80420012208E03B
:102FB0005CEA010206D030228DF804208DF805006D
:102FC00002229046009B83F0080353EA0A030AD1C9
:102FD0005CEA010201D1620705D530228DF8042098
:102FE0004FF001087F1E582804D034A003900EA88B
:102FF00002900DE036A0F9E753466046009AFDF7CF
:10300000BDFA84460398825C0298401E02900270CA
:103010005CEA0100F0D1029806A9081A00F1200A22
:10302000600702D524F4803400E00127574502DD13
:10303000A7EB0A0000E0002000EB0A0100900598D1
:103040004144401A0590E00306D45B462146179A96
:10305000059800F0B3F90544002706E001A85A4698
:10306000C05D179990476D1C7F1C4745F6DBE00358
:103070000CD55B462146179A059800F09FF9054448
:1030800004E030205A46179990476D1C0099481E5D
:1030900000900029F5DC08E0029802995A46007871
:1030A000491C0291179990476D1CBAF10001AAF1D1
:1030B000010AF1DC65E100000928010030313233FA
:1030C0003435363738396162636465660000000064
:1030D000303132333435363738394142434445464E
:1030E0000000000000F058F90544761C30780028F4
:1030F0007FF4ECAD19B02846BDE8F08F620700D42C
:10310000062709F1070222F0070CFCE80223E1463A
:1031100003F000485FEA080C02D00FF2702C0DE0BB
:103120005FEA045C02D50FF2682C07E05FEAC47C1A
:1031300002D00FF2602C01E0AFF2700C4FF0FF38BC
:1031400023F00043CDF850C065280CD006DC45289C
:1031500009D046281DD047283DD13DE0662818D02B
:1031600067287ED138E00021112F01DB112000E01B
:10317000781CCDE9000106A90EA8FFF7DDFCDDE90A
:103180000F010E9A03910021009207F1010A0491A8
:103190004DE04FF000400097CDE9011006A90EA8C0
:1031A000FFF7CAFCDDE90F0203920E9B1199002282
:1031B000DDF80CA00093049211B9791C00EB010A10
:1031C000B7EB0A0004D4C0F1FF3007F1010A049004
:1031D000AAEB0700019044E0012F00DA012700214B
:1031E000112F01DD112000E03846CDE9000106A9CC
:1031F0000EA8FFF7A1FCDDE90F010E9A0391002153
:1032000004910092BA4621070CD40399514500DA83
:103210008A46BAF1010F05DD009AAAF10101515C5D
:10322000302908D0B84202DA10F1040F06DA012181
:10323000CDE9011015E0AAF10101E9E7002805DC5C
:10324000049901440491AAEB000102E0411C51459C
:1032500000DD8A460499401A401C01904FF000405E
:103260000290200704D40198504501DBCDF804807A
:1032700000208DF84F0002980DF14F07B0F1004F7C
:1032800025D02B200E9002984FF0020800280CDA6F
:10329000404202902D200E9007E00A210298FDF78F
:1032A00057F93031029007F8011DB8F10001A8F17B
:1032B0000108F2DC02980028EFD1791E0E98087000
:1032C000307800F0200040F0450007F8020D12A809
:1032D000C01B00F107081498007800B1012000EB32
:1032E0000A01019801EBE07105984144401A401E23
:1032F0000590E00306D45B462146179A059800F036
:103300005DF805441498007818B15A46179990470B
:103310006D1CE00324D55B462146179A059800F002
:103320004DF805441CE00498002807DBDDE90301A3
:10333000884203DD0098405C179901E0179930201E
:103340005A469047049805F10105401C04900198E5
:10335000401E019004D12E205A46179990476D1CAB
:10336000BAF10001AAF1010ADDDC05E017F8010B52
:103370005A46179990476D1CB8F10001A8F1010851
:10338000F4DC5B462146179A0598ABE62D00000059
:103390002B000000200000002DE9F041044600252C
:1033A0001E461746880404D405E039462020B0475D
:1033B0006D1C641EF9D52846BDE8F0812DE9F04169
:1033C000044600251E469046C80301D5302700E07C
:1033D0002027880404D505E041463846B0476D1CD7
:1033E000641EF9D52846BDE8F0810A68531C0B60BD
:1033F000107070472DED108BFFF72AFBFDF780FE54
:10340000FDF732FC0620FDF72FFEFA480021038865
:10341000F94802880846FDF763FCFDF71FFCF7A199
:103420000020FDF7B3FC9FEDF9BB9FEDFACB9FEDBC
:10343000FBDB9FEDFCEBDFF8F4A3DFEDFDFA9FED86
:10344000FD8B9FEDFEFAFDF70FFAB0EE409A19EEF4
:10345000100AFDF74EF841EC100BF9A153EC102BBC
:10346000FD48FFF745FBFDF7F9FBC088FA49FDF77A
:103470008DFCBAF80000F0EE6FAA00EE100AB8EE6C
:10348000400A20EE2A0A10EE100AFDF732F853EC3B
:10349000182BFCF73CFFFDF73FF8EF49483908606F
:1034A000FDF727F853EC1B2BFCF731FF53EC1C2BDB
:1034B000FCF786FEFDF730F8E84C00EE100A84EDCC
:1034C000000AB5EEC00AF1EE10FA01D884ED00FA58
:1034D000E3492068884203DBB2EE0C0A84ED000A5F
:1034E00094ED000A9FEDDFAA4FF47A75DA4920EED9
:1034F0000A0ABDEEC00A10EE100A90FBF5F030305B
:103500003C39087010EE100A642690FBF5F105FBBB
:10351000110090FBF6F0D04930303C394870084635
:103520004FF02E0880F8028010EE100A0A2790FB58
:10353000F6F106FB110090FBF7F0C74930303C393B
:10354000C87010EE100A90FBF7F107FB1100C2499A
:1035500030303C39087108464FF0000B80F805B058
:10356000FDF77CFBC088C0A100EB400080B2FDF7F6
:103570000DFCB94ABFA13C3AB748FFF7B9FAFDF7CD
:103580006DFBC0884FF6FF7909EA8000B249FDF76C
:10359000FDFBBAF8020000EE100AB8EE400A60EE39
:1035A0002A0A9FEDB60A20EE800A84ED0D0ADFEDAF
:1035B000B40A20EE200A10EE100AFCF79AFF53EC32
:1035C0001D2BFCF716FF53EC1E2BFCF712FFFCF72C
:1035D000A3FF00EE900AC4ED070A94ED040A20EE62
:1035E000800A84ED080A10EE100AE906884204DD1C
:1035F00094ED060A84ED040A07E010EE100A8842F2
:1036000003DC94ED050A84ED040A94ED040A60EEEF
:10361000809A94ED021AF2EE040A81EE200A10EE6E
:10362000100AFCF766FF9FED971B53EC112BFCF77C
:1036300068FE9FED961B53EC112BFCF768FE9FED87
:10364000951B53EC112BFCF7BBFDFCF765FF00EE5F
:10365000900AC4ED030A89EEA00A84ED010A60EE27
:103660000A0AFDEEE00A10EE900A90FBF5F17A48A6
:1036700030312838017010EE901A91FBF5F205FBFD
:10368000121191FBF6F13031417080F80280BDEEED
:10369000C00A10EE101A91FBF6F206FB121191FB14
:1036A000F7F13031C17010EE101A91FBF7F207FB01
:1036B00012113031017180F805B0FDF7CFFAC088E2
:1036C00076A100EB400009EA4000FDF75FFBFDF743
:1036D000C5FAC08879A1C0EBC00080B2FDF756FBE7
:1036E0005D4A78A1283A5C48FFF702FAFDF7B6FA7E
:1036F000C088594909EAC000FDF748FBBAF8040040
:1037000000EE100AB8EE400A20EE2A0A10EE100A67
:10371000FCF7EFFEB0EE481AF0EE681A53EC112BEE
:10372000FCF7F5FDFCF7F8FE6062FCF7E2FEB3EE95
:10373000090A41EC1A0B39EE400A10EE100AFCF7A8
:10374000D8FE9FED621B53EC112BFCF7E0FD53EC10
:103750001A2BFCF735FDFCF7DFFE8046E062206B9C
:10376000FCF7C7FE41EC190B4046FCF7C2FE9FED8B
:10377000591B53EC112BFCF7CAFD53EC192BFCF72A
:103780001FFDFCF7C9FE00EE100A84ED0A0AB5EE33
:10379000C00AF1EE10FA01D884ED0AFA4F49A06A86
:1037A000884203DB9FED4E0A84ED0A0A94ED0A0A73
:1037B000BDEEC00A10EE100A90FBF5F1264830313C
:1037C0001438017010EE101A91FBF5F205FB12117E
:1037D00091FBF6F13031417010EE101A91FBF6F2C8
:1037E00006FB121191FBF7F13031817010EE101AC7
:1037F00078E000005800002056000020312E2064A0
:1038000073313862323020746573740087A757CAE9
:10381000320417C08195438B6CA730400000000034
:1038200000A0894000000000000069406400002002
:10383000000080396666666666660A400000000021
:10384000543A25302E3366206465677265652043DF
:10385000656C736975730000B400002014000020CB
:10386000000060410000C842322E2070482074657C
:103870007374200070483A257300000000404E45E4
:1038800000007A4400000000000039408B6CE7FB28
:10389000A9F1923F000000000000F03F332E2045C8
:1038A0006C656374726963616C20636F6E647563C9
:1038B00074697669747928454329000074657374C6
:1038C0000000000045433A25730000006132553086
:1038D0002AA993BF3D0AD7A3700D8BC000803B453A
:1038E00000803B4591FBF7F207FB12113031C170AC
:1038F00080F804B0FDF7B2F9C0880EA100EB80009B
:1039000009EA4000FDF742FA104A11A102F1140041
:10391000FFF7EEF8FDF7A2F9C08800EB400101EBDC
:10392000C0000A4980B21431FDF730FA0A48FCF7AA
:1039300077FF88E5342E2054757262696469747962
:10394000285455292074657374000000A0000020DD
:1039500054553A257300000040420F00000000005B
:103960000000000000000000000000000000000057
:103970000000000000000000000000000000000047
:103980000000000000000000000000000000000037
:103990000000000000000000000000000000000027
:1039A000000000000000000003800380018001800F
:1039B00001800180018001800180018001800180FF
:1039C0000180018000000000038003C0038000002C
:1039D00000000000000000000000000000000000E7
:1039E00000000000000000000E700E700E700E70DF
:1039F0000E700C300C3000000000000000000000D1
:103A000000000000000000000000000000000000B6
:103A100000000000000000000000000000000000A6
:103A2000000000000000000000000000061806383A
:103A3000063006307FFE7FFE0C300C300C300C3030
:103A40007FFE7FFE0C601C6018601860186000002C
:103A50000000000000000000000000000000000066
:103A600000000000000000C000C000C007F81FF800
:103A700038C031C0318039803D801F8007F001F8A7
:103A800003BC031C030C031C233C3FF83FE007006E
:103A9000060006000000000000000000000000001A
:103AA00000000000000000001C077E06630C631885
:103AB000633863307E603CE000C0018003800338DF
:103AC000067E0CC61CC618C630C670EE607C0000B0
:103AD00000000000000000000000000000000000E6
:103AE000000000000000000000000FC01FE0187080
:103AF0003870387018701CE00FC00F003F8C3B8C82
:103B000071CC60EC607C7038707C3FFE1FCF000091
:103B100000000000000000000000000000000000A5
:103B2000000000000000000003C003C0038001800B
:103B30000180018001800000000000000000000002
:103B40000000000000000000000000000000000075
:103B50000000000000000000000000000000000065
:103B600000000000000000000030006000E001C024
:103B7000038003000700070006000E000E000E0081
:103B80000E000E000E0006000700070003800380F1
:103B900001C000E0007000300000000000000000E4
:103BA00000000000000000000C000E000700038071
:103BB00001C001C000E000E0006000700070007013
:103BC000007000700060006000E000E001C001C013
:103BD000038007000E000C00000000000000000041
:103BE0000000000000000000018001800188199899
:103BF0000FF803C003C01FF81998018001800180ED
:103C000000000000000000000000000000000000B4
:103C100000000000000000000000000000000000A4
:103C20000000000000000000000000000000000094
:103C300000000180018001800180018001807FFE01
:103C40007FFE018001800180018001800000000072
:103C50000000000000000000000000000000000064
:103C60000000000000000000000000000000000054
:103C70000000000000000000000000000000000044
:103C8000000000000000038003C003C001C001C0A9
:103C900001C007801F0010000000000000000000AD
:103CA0000000000000000000000000000000000014
:103CB00000000000000000000000000000000FF005
:103CC0000FF00000000000000000000000000000F5
:103CD00000000000000000000000000000000000E4
:103CE00000000000000000000000000000000000D4
:103CF00000000000000000000000000000000000C4
:103D000000000000000003C003C003C003C00000A7
:103D100000000000000000000000000000000000A3
:103D20000000000000000000001C001800380030F7
:103D300000700060006000C000C001C0018003800E
:103D40000300070006000E000C000C00180018000D
:103D500038003000000000000000000000000000FB
:103D600000000000000000000000000007F01FF845
:103D70001838381C300C303C707E71EE73CE7F0EDC
:103D80007E0E380C300C381C1C381FF007E0000089
:103D90000000000000000000000000000000000023
:103DA00000000000000000000000000003C00FC081
:103DB0003FC039C001C001C001C001C001C001C085
:103DC00001C001C001C001C001C03FFC3FFC0000B8
:103DD00000000000000000000000000000000000E3
:103DE0000000000000000000000000000FE03FF0B5
:103DF000183800380018001800380030007000E053
:103E000001C0038007000E001C003FFC3FFC0000C7
:103E100000000000000000000000000000000000A2
:103E20000000000000000000000000001FE01FF084
:103E30000038003800380038007007E007F00078DC
:103E4000001C001C001C001C00383FF03FC000009C
:103E50000000000000000000000000000000000062
:103E600000000000000000000000000000F001F071
:103E700001B00330073006300C301C3038303030A1
:103E800070307FFE7FFE00300030003000300000D8
:103E90000000000000000000000000000000000022
:103EA0000000000000000000000000001FF81FF8E4
:103EB000180018001800180018001FE01FF800383C
:103EC000001C001C001C001800381FF01FC0000060
:103ED00000000000000000000000000000000000E2
:103EE00000000000000000000000000001F807F8DA
:103EF0000E001C001800380031C03FF83E3C301C5A
:103F0000300C300C380C380C1C1C1FF807E000007B
:103F100000000000000000000000000000000000A1
:103F20000000000000000000000000003FFC3FFC1B
:103F3000001C0018003800300070006000E000C075
:103F400001C001800380070007000E000E00000082
:103F50000000000000000000000000000000000061
:103F60000000000000000000000000000FF01E78BC
:103F7000381C381C381C3C181E780FE007E01E78EF
:103F80003C3C381C300C300C381C1FF80FF0000083
:103F90000000000000000000000000000000000021
:103FA0000000000000000000000000000FE01E788C
:103FB0003838301C701C700C300C381C3EFC0FEC78
:103FC000001C001C0018003800F01FE01F0000005B
:103FD00000000000000000000000000000000000E1
:103FE00000000000000000000000000000000000D1
:103FF0000000000003C003C003C0018000000000F7
:10400000000000000000018003C003C003C00000E6
:1040100000000000000000000000000000000000A0
:104020000000000000000000000000000000000090
:104030000000000003C003C003C0018000000000B6
:1040400000000000000003C003C003C001C001C0A5
:1040500001C007800F000000000000000000000009
:104060000000000000000000000000000000000050
:1040700000100038007001E003C007000E003C0093
:104080001C000E00078001C000E000780010000056
:104090000000000000000000000000000000000020
:1040A0000000000000000000000000000000000010
:1040B000000000000000000000003FFC00000000C5
:1040C00000003FFC3FFC000000000000000000007A
:1040D00000000000000000000000000000000000E0
:1040E00000000000000000000000000000000000D0
:1040F00008001C000E00070003C000E00070003C38
:104100000038007001E0038007001E000800000076
:10411000000000000000000000000000000000009F
:1041200000000000000000000E000FC003E000705F
:104130000038003800380038007803F003C003006E
:1041400003000300000000000700078007000000D4
:10415000000000000000000000000000000000005F
:10416000000000000000000001E007F80E1C1C0E1B
:1041700018063006300361F363F36633E673CE63EB
:10418000CC63CC66CC66CCE6CFFCC73C600060005C
:10419000600030003C301FF0000000000000000014
:1041A00000000000000000000000000003C003C089
:1041B00007E006E006600E700C700C301C381838F2
:1041C000381C3FFC3FFC700E700E6006E0070000DC
:1041D00000000000000000000000000000000000DF
:1041E0000000000000000000000000003FF03FF869
:1041F0003838381C381C381838383FF03FF0383C15
:10420000381C380C380C381C383C3FF83FE00000B4
:10421000000000000000000000000000000000009E
:1042200000000000000000000000000007FC0FFC80
:104230001E00380038003000700070007000700000
:104240007000300038003C001E040FFC03FC00002E
:10425000000000000000000000000000000000005E
:104260000000000000000000000000003FE03FF000
:104270003038301C300C300E300E300E300E300E18
:10428000300E300C301C301C30783FF03F80000086
:10429000000000000000000000000000000000001E
:1042A0000000000000000000000000001FF81FF8E0
:1042B000180018001800180018001FF81FF8180040
:1042C000180018001800180018001FF81FF8000048
:1042D00000000000000000000000000000000000DE
:1042E0000000000000000000000000001FF81FF8A0
:1042F000180018001800180018001FF81FF8180000
:104300001800180018001800180018001800000005
:10431000000000000000000000000000000000009D
:1043200000000000000000000000000007FC0FFC7F
:104330001C00380030007000700070FC70FC700CC5
:10434000700C700C300C380C1C0C0FFC07FC0000BF
:10435000000000000000000000000000000000005D
:10436000000000000000000000000000300C300CD5
:10437000300C300C300C300C300C3FFC3FFC300C5F
:10438000300C300C300C300C300C300C300C000089
:10439000000000000000000000000000000000001D
:1043A0000000000000000000000000003FFC3FFC97
:1043B00001800180018001800180018001800180F5
:1043C000018001800180018001803FFC3FFC0000F2
:1043D00000000000000000000000000000000000DD
:1043E0000000000000000000000000001FF01FF0AF
:1043F000003000300030003000300030003000303D
:10440000003000300030003010701FE01FC000008E
:10441000000000000000000000000000000000009C
:10442000000000000000000000000000381C3838C8
:10443000387038E038C039803B003F003F003B0017
:104440003B8039C038E038703838383C381C0000C0
:10445000000000000000000000000000000000005C
:104460000000000000000000000000001C001C0014
:104470001C001C001C001C001C001C001C001C005C
:104480001C001C001C001C001C001FFC1FFC00006A
:10449000000000000000000000000000000000001C
:1044A000000000000000000000000000381C381C64
:1044B0006C3E6C3E6C6E666E666E67CE63CE6386D7
:1044C00061866006600660066006600660060000A1
:1044D00000000000000000000000000000000000DC
:1044E000000000000000000000000000380C3C0C40
:1044F0003C0C3E0C360C370C330C338C318C31CCED
:1045000030CC30EC306C307C303C303C301C000027
:10451000000000000000000000000000000000009B
:104520000000000000000000000000000FF01FF875
:10453000381C381C700E700E700E60066006600627
:10454000700E700E700C381C3C381FF80FE0000025
:10455000000000000000000000000000000000005B
:104560000000000000000000000000003FE03FF8F5
:10457000383C381C380C380C380C381C38783FF074
:104580003FC03800380038003800380038000000DC
:10459000000000000000000000000000000000001B
:1045A0000000000000000000000000000FF01FF8F5
:1045B000381C381C700E700E700E600660066006A7
:1045C000700E700E700C381C3C381FF80FE0018024
:1045D000018001E200FF003C00000000000000003C
:1045E0000000000000000000000000003FE03FF875
:1045F000383838183818381838383FF03FC039E0A4
:104600003860387038383838381C381C380E00009C
:10461000000000000000000000000000000000009A
:104620000000000000000000000000000FF81FF86C
:1046300038003800300038001E000F8007F000F806
:10464000003C001C001C001C003C3FF83FE0000048
:10465000000000000000000000000000000000005A
:104660000000000000000000000000007FFE7FFE50
:104670000180018001800180018001800180018032
:1046800001800180018001800180018001800000A3
:10469000000000000000000000000000000000001A
:1046A000000000000000000000000000300C300C92
:1046B000300C300C300C300C300C300C300C300C1A
:1046C000300C300C300C301C381C1FF80FE0000090
:1046D00000000000000000000000000000000000DA
:1046E000000000000000000000000000E00770066D
:1046F000700E700E380C381C38181C181C380C3012
:104700000E700E70066007E007E003C003C00000F3
:104710000000000000000000000000000000000099
:1047200000000000000000000000000060066006BD
:104730006006600660066006618663C673C673CE57
:1047400076EE366C366C3C7C3C3C3C3C381C0000C5
:104750000000000000000000000000000000000059
:10476000000000000000000000000000700E381C77
:104770001C381C380E7006E007E003C003C003C0FD
:1047800007E00E701C301C38381C701E700E0000C4
:104790000000000000000000000000000000000019
:1047A000000000000000000000000000E006700EA5
:1047B000380C381C1C381C300E70066007E003C033
:1047C0000180018001800180018001800180000062
:1047D00000000000000000000000000000000000D9
:1047E0000000000000000000000000003FFC3FFC53
:1047F000001C00380070006000E001C003800380EE
:1048000007000E000C001C0038003FFC3FFC0000BD
:104810000000000000000000000000000000000098
:10482000000000000000000007F007F0060006008E
:104830000600060006000600060006000600060048
:104840000600060006000600060006000600060038
:1048500006000600060007F000000000000000004F
:104860000000000000000000380018001C000C00D0
:104870000C0006000600070003000380018001C051
:1048800000C000E000600060003000300038001818
:10489000001C000C000000000000000000000000F0
:1048A00000000000000000000FE00FE0006000606A
:1048B00000600060006000600060006000600060F8
:1048C00000600060006000600060006000600060E8
:1048D0000060006000600FE00000000000000000C9
:1048E000000000000000000000000000038003C082
:1048F00006E006600C301C381818301C0000000060
:1049000000000000000000000000000000000000A7
:104910000000000000000000000000000000000097
:104920000000000000000000000000000000000087
:104930000000000000000000000000000000000077
:104940000000000000000000000000000000000067
:1049500000000000FFFFFFFF00000000000000005B
:1049600000000000000000001C000E000700018095
:104970000000000000000000000000000000000037
:104980000000000000000000000000000000000027
:104990000000000000000000000000000000000017
:1049A0000000000000000000000000000000000007
:1049B000000000001FF01EF80018001C001C07FC7F
:1049C0001FFC3C1C381C301C387C3FFC1FDC0000EA
:1049D00000000000000000000000000000000000D7
:1049E00000000000000000003800380038003800E7
:1049F000380038003BF03FF83E1C380C380C380CBF
:104A0000380C380C380C381C38383FF01FE00000E8
:104A10000000000000000000000000000000000096
:104A20000000000000000000000000000000000086
:104A30000000000003F80FF81E001C0038003800CA
:104A40003800380038001C001E000FF803F8000082
:104A50000000000000000000000000000000000056
:104A60000000000000000000001C001C001C001CD6
:104A7000001C001C07FC1FFC181C381C301C301CC0
:104A8000301C301C301C383C387C1FDC0F9C000074
:104A90000000000000000000000000000000000016
:104AA0000000000000000000000000000000000006
:104AB0000000000007F01E78181C381C300C3FFC6A
:104AC0003FFC3000300038001C001FFC07FC0000D9
:104AD00000000000000000000000000000000000D6
:104AE0000000000000000000007E01FE03C0038003
:104AF00003000300030003007FFC7FFC03000300AE
:104B00000300030003000300030003000300000090
:104B10000000000000000000000000000000000095
:104B20000000000000000000000000000000000085
:104B3000000000000FFE1C7E18383818381838386E
:104B40001C781FF03B80300038001FF81FFC300E2F
:104B5000700E700C3C3C1FF801800000000000004B
:104B60000000000000000000380038003800380065
:104B7000380038003BF03FF83C18381C381C381C13
:104B8000381C381C381C381C381C381C381C0000D9
:104B90000000000000000000000000000000000015
:104BA0000000000000000000018003C003C001807D
:104BB000000000001FC01FC001C001C001C001C033
:104BC00001C001C001C001C001C03FFC3FFC0000AA
:104BD00000000000000000000000000000000000D5
:104BE0000000000000000000006000700070007015
:104BF000000000003FF03FF0007000700070007097
:104C00000070007000700070007000700070007024
:104C10000070006039E03FC00600000000000000A6
:104C20000000000000000000180018001800180024
:104C300018001800181C1838187019E01BC01F0045
:104C40001B8019C019E018F01878183C181E0000D5
:104C50000000000000000000000000000000000054
:104C600000000000000000001FC01FC001C001C004
:104C700001C001C001C001C001C001C001C001C02C
:104C800001C001C001C001C001C03FFC3FFC0000E9
:104C90000000000000000000000000000000000014
:104CA0000000000000000000000000000000000004
:104CB000000000006F3C6FEC79CE71CE718E718E6A
:104CC000718E718E718E718E718E718E718E0000EB
:104CD00000000000000000000000000000000000D4
:104CE00000000000000000000000000000000000C4
:104CF0000000000033F03FF83C18381C381C381C0A
:104D0000381C381C381C381C381C381C381C000057
:104D10000000000000000000000000000000000093
:104D20000000000000000000000000000000000083
:104D3000000000000FF01FF8381C300C300C700E13
:104D4000700E700E300C381C38381FF80FE0000061
:104D50000000000000000000000000000000000053
:104D60000000000000000000000000000000000043
:104D7000000000003BF03FF83E1C380C380C380CAB
:104D8000380C380C380C381C38383FF03FE038000D
:104D90003800380038003800000000000000000033
:104DA0000000000000000000000000000000000003
:104DB0000000000007FC1F7C181C381C301C301C35
:104DC000301C301C301C383C387C1FDC0F9C001C15
:104DD000001C001C001C001C000000000000000063
:104DE00000000000000000000000000000000000C3
:104DF0000000000019F81BFC1E0C1C0C180E1800FB
:104E000018001800180018001800180018000000FA
:104E10000000000000000000000000000000000092
:104E20000000000000000000000000000000000082
:104E3000000000000FF81E38180018001C000F803A
:104E400007F000F80038001C00181FF81FE00000F1
:104E50000000000000000000000000000000000052
:104E60000000000000000000000000000600060036
:104E7000060006007FFC7FFC060006000600060018
:104E80000600060006000600070003FC01FC000007
:104E90000000000000000000000000000000000012
:104EA0000000000000000000000000000000000002
:104EB00000000000381C381C381C381C381C381CFA
:104EC000381C381C381C383C187C1FFC0F9C000018
:104ED00000000000000000000000000000000000D2
:104EE00000000000000000000000000000000000C2
:104EF00000000000700E300C381C18181C381C30D4
:104F00000C300E70066007E007C003C003C000004D
:104F10000000000000000000000000000000000091
:104F20000000000000000000000000000000000081
:104F3000000000006006600660066186718E73CE18
:104F400033CC32EC366C366C3C7C3C3C1C3800007C
:104F50000000000000000000000000000000000051
:104F60000000000000000000000000000000000041
:104F700000000000381C1C181C380E7007E003C02D
:104F800003C003C007E00E701C38381C781E0000F8
:104F90000000000000000000000000000000000011
:104FA0000000000000000000000000000000000001
:104FB00000000000700E300C381C18181C381C380B
:104FC0000E300E70066007E003E003C003C00380EC
:104FD000038007007E007C0000000000000000004D
:104FE00000000000000000000000000000000000C1
:104FF000000000001FF81FF80038007000E001C03A
:105000000380030007000E001C003FFC3FFC000073
:105010000000000000000000000000000000000090
:10502000000000000000000000F801F8018003808B
:105030000380038003800380038003003F003C0063
:105040000F0003000380038003800380038003803C
:105050000380018001E000F8000000000000000073
:1050600000000180018001800180018001800180B9
:105070000180018001800180018001800180018028
:105080000180018001800180018001800180018018
:10509000018001800180018000000000000000000C
:1050A00000000000000000001E001F80018001C001
:1050B00001C001C001C001C001C000C000FC003C33
:1050C00000E000C001C001C001C001C001C001C0BA
:1050D00001C0018007801F000000000000000000E8
:1050E00000000000000000000000000000000000C0
:1050F000000000000000000000001E003F06738654
:1051000061FC60FC000000000000000000000000E6
:105110000000000000000000000000003C510008FA
:10512000000000206C000000182B0008A8510008A7
:105130006C0000204C080000282B0008007A030AAD
:105140000000000000000000010203040607080937
:10515000000000000000000000007A430000803FD3
:105160000000803F000067440090414500000000BF
:10517000000000000000000000000000000000002F
:105180000A733E45000000005C3900081000200052
:1051900006002003E001FFFF000000004C0000209B
:0851A000000000000000000007
:040000050800018965
:00000001FF
