:0300000002119555
:0C119500787FE4F6D8FD75814C0211DC77
:0816BB0054553A0054203A0096
:10159300041100000000041500000000040D000009
:1015A30000000D210000000000000000000000000A
:1015B30000041D000000000419453E730A050800DD
:0415C3000000000024
:0D16A500007F087E017DF3DDFEDEFCDFFA34
:0116B2002215
:100E2900E4FFFE7DA07C40AB14AA13A912A81112FD
:100E39000A73E4FBFA79807844120B7C8F148E13C1
:100E49008D128C11E4FBFA79207841AF20AE1FADE9
:100E59001EAC1D120B7CE4FBFA79C878C112098219
:100E69007B527A49799D78BC120A73AB14AA13A9EB
:100E790012A8111209828F108E0F8D0E8C0D7F858D
:100E89007E6B7D587CC4AB10AA0FA90EA80D120A5F
:100E990073AB1CAA1BA91AA8191209828F188E17DD
:100EA9008D168C15E4FFFEFDFCAB18AA17A916A830
:100EB90015120C1960025009E4F518F517F516F525
:100EC900157F007E807D3B7C45AB18AA17A916A823
:100ED90015120C19400C75180075178075163B759D
:100EE9001545AF18AE17AD16AC15120CD0AB07AA45
:100EF900067C037DE8120DE5EF2430F5217C037DA6
:100F0900E8AF03AE02120DE57E007F64CFCDCFCEF0
:100F1900CCCE120DE5EF2430F522AF18AE17AD1681
:100F2900AC15120CD0AB07AA067C007D64120DE546
:100F39007E007F0ACFCDCFCECCCE120DE5EF243087
:100F4900F5237C007D0AAF03AE02120DE5ED2430D6
:100F5900F524AB217D027F18121221AB227D027F7D
:100F690021121221AB237D027F2A121221AB247D8B
:060F7900027F3302122189
:1010F500AF20AE1FAD1EAC1D120CD0AB07AA067CEF
:10110500037DE8120DE5EF2430F5257C037DE8AF7E
:1011150003AE02120DE57E007F64CFCDCFCECCCEDF
:10112500120DE5EF2430F526AF20AE1FAD1EAC1D28
:10113500120CD0AB07AA067C007D64120DE57E007B
:101145007F0ACFCDCFCECCCE120DE5EF2430F527DB
:1011550075282E7C007D0AAF03AE02120DE5ED2445
:1011650030F529AB257D047F18121221AB267D04AD
:101175007F21121221AB277D047F2A121221AB2871
:101185007D047F33121221AB297D047F3C0212219D
:10166100759850758920758DFD758BFDE4F587D2D0
:021671008E22C7
:0816B3008F993099FDC29922C4
:100F7F0012166112104512152412164A759D077527
:100F8F00BCA0E4FBFDFF1213D17B01E4FD7F121225
:100F9F0013D17B02E4FD7F241213D17B03E4FD7F89
:100FAF00361213D17B04E4FD7F481213D17B05E485
:100FBF00FD7F5A1213D17B06E4FD7F6C1213D17B98
:100FCF00FF7A1679BB7D02E4FF1214687BFF7A1655
:100FDF0079BF7D04E4FF121468121373AC06AD07DA
:100FEF00E4120C978F208E1F8D1E8C1D7F02121402
:100FFF00EAAC06AD07E4120C978F148E138D128C8A
:10100F0011120E291210F5E4F52EF52F7421252F4C
:10101F00F8E6FF1216B3052FE52F7002052EC394C5
:10102F0005E52E940040E57F0D1216B37F0A1216C8
:06103F00B31216A580A308
:1014EA00E4F5BDF5BEE5BC54E044084FF5BC7FFA0F
:1014FA00E5BC30E41E53BCEFAEBDEEFD7C007E00C1
:10150A007802C333CE33CED8F9FFE5BE5403FDEFDC
:09151A004DFF22DFDB7E047F009F
:0115230022A5
:0F1695007D157C03ED1D70011C144C70F7DFF107
:0116A4002223
:10000300003E5149453E0000427F4000004261519D
:100013004946002141454B31001814127F10002737
:1000230045454539003C4A494930000171090503FA
:1000330000364949493600064949291E000036362B
:10004300000000005636000000081422410000148E
:10005300141414140000412214080002015109066B
:1000630000324959513E007C1211127C007F4949EC
:100073004936003E41414122007F4141221C007F1D
:1000830049494941007F09090901003E4149497A2B
:10009300007F0808087F0000417F410000204041A5
:1000A3003F01007F08142241007F40404040007F11
:1000B300020C027F007F0408107F003E4141413E55
:1000C300007F09090906003E4151215E007F09199D
:1000D30029460046494949310001017F0101003F9A
:1000E3004040403F001F2040201F003F4038403F1A
:1000F300006314081463000708700807006151497E
:10010300454300007F41410000552A552A55000010
:1001130041417F000004020102040040404040408E
:10012300000001020400002054545478007F484426
:10013300443800384444442000384444487F00385D
:100143005454541800087E0901020018A4A4A47C86
:10015300007F080404780000447D40000040808450
:100163007D00007F102844000000417F4000007C98
:1001730004180478007C08040478003844444438A4
:1001830000FC242424180018242418FC007C0804F0
:10019300040800485454542000043F444020003CC9
:1001A3004040207C001C2040201C003C4030403C50
:1001B300004428102844001CA0A0A07C00446454E0
:1001C3004C44141414141414000000000000000024
:1001D3000000000000000000000000F80000000024
:1001E300000000333000000000100C06100C060065
:1001F300000000000000000040C07840C0784000CC
:10020300043F04043F040400007088FC083000002D
:10021300001820FF211E0000F008F000E018000085
:1002230000211C031E211E0000F00888700000003E
:100233001E2123241927211010160E000000000090
:100243000000000000000000000000E018040200AD
:10025300000000071820400000020418E00000001E
:100263000040201807000000404080F0804040001C
:100273000202010F01020200000000F00000000072
:100283000101011F01010100000000000000000046
:1002930080B07000000000000000000000000000BB
:1002A3000001010101010101000000000000000044
:1002B30000303000000000000000000080601804DF
:1002C300006018060100000000E010080810E000BC
:1002D300000F102020100F00001010F80000000085
:1002E3000020203F202000000070080808887000CC
:1002F300003028242221300000300888884830004C
:100303000018202020110E000000C02010F800006B
:1003130000070424243F240000F808888808080004
:100323000019212020110E0000E010888818000019
:10033300000F112020110E0000380808C8380800EB
:100343000000003F0000000000708808088870006B
:10035300001C222121221C0000E010080810E000EC
:100363000000312222110F00000000C0C000000075
:10037300000000303000000000000080000000009A
:100383000000806000000000000080402010080092
:10039300000102040810200040404040404040005B
:1003A3000404040404040400000810204080000036
:1003B3000020100804020100007048080808F0003B
:1003C3000000003036010000C030C828E810E0000B
:1003D3000718272423140B000000C038E000000096
:1003E300203C23020227382008F888888870000000
:1003F300203F202020110E00C030080808083800D4
:10040300071820202010080008F808080810E0004A
:10041300203F202020100F0008F88888E8081000EB
:10042300203F20202320180008F88888E8081000BF
:10043300203F200003000000C030080808380000F7
:1004430007182020221E020008F808000008F808F8
:10045300203F210101213F20000808F8080800007F
:100463000020203F2020000000000808F8080800B2
:10047300C08080807F00000008F888C0281808002A
:10048300203F20012638200008F808000000000063
:10049300203F20202020300008F8F800F8F808005A
:1004A300203F003F003F200008F830C00008F80854
:1004B300203F200007183F00E01008080810E00064
:1004C3000F10202020100F0008F808080808F0007B
:1004D300203F210101010000E01008080810E0009E
:1004E3000F18242438504F0008F888888888700033
:1004F300203F2000030C30200070880808083800D3
:100503000038202121221C00180808F808081800C8
:100513000000203F2000000008F808000008F80849
:10052300001F202020201F000878880000C83808FA
:10053300000007380E010000F80800F80008F80072
:10054300033C0700073C030008186880806818080C
:1005530020302C03032C30200838C800C83808008A
:100563000000203F2000000010080808C8380800D9
:100573002038262120201800000000FE020202007D
:100583000000007F40404000000C30C0000000002D
:10059300000000010638C00000020202FE00000055
:1005A300004040407F0000000000040202020400FB
:1005B3000000000000000000000000000000000038
:1005C3008080808080808080000202040000000020
:1005D3000000000000000000000080808080000018
:1005E3000019242222223F2008F800808000000006
:1005F300003F112020110E000000008080800000C9
:10060300000E112020201100000000808088F800D7
:10061300000E112020103F20000080808080000009
:10062300001F222222221300008080F0888888186D
:100633000020203F20200000000080808080800078
:10064300006B94949493600008F80080808000000D
:10065300203F210000203F200080989800000000E8
:100663000020203F20200000000000809898000018
:1006730000C08080807F000008F800008080800038
:10068300203F24022D302000000808F8000000005D
:100693000020203F20200000808080808080800018
:1006A300203F20003F20003F8080008080800000AA
:1006B300203F210000203F20000080808080000038
:1006C300001F202020201F00808000808000000069
:1006D30080FFA12020110E00000000808080800098
:1006E300000E112020A0FF80808080008080800089
:1006F30020203F21200001000000808080808000B6
:100703000033242424241900008080E0808000002A
:100713000000001F20200000808000000080800077
:10072300001F202020103F208080800000808080D8
:1007330000010E3008060100808000800080808068
:100743000F300C030C300F0000808000808080008D
:100753000020312E0E3120008080800000808080B8
:1007630080818E7018060100008080808080800068
:100773000021302C2221300000000000807C020286
:1007830000000000003F404000000000FF000000A8
:1007930000000000FF0000000002027C8000000057
:1007A3000040403F00000000000601010202040473
:1007B30000000000000000001060020CC0082622A8
:1007C300E23AA222222A06000000000000000000F4
:1007D300000000000000000004047C03001010135C
:1007E3001212FF121212100000000000000000009D
:1007F30000000000000000001060028C00F80808F0
:1008030008FF080808F800000000000000000000CE
:10081300000000000000000004047E012063212189
:10082300213F212129336000000000000000000067
:1008330000000000000000000000FC242424FC252C
:100843002624FC24242404000000000000000000EF
:10085300000000000000000040308F80844C5525CC
:100863002525554C8080800000000000000000001A
:1008730000000000000000001010D0FF9050205036
:100883004C434C502040400000000000000000009A
:100893000000000000000000040300FF0041445872
:1008A300414E605847404000000000000000000037
:1008B30000000000000000001060028C00FE02F245
:1008C30002FE00F800FF000000000000000000002E
:1008D300000000000000000004047E018047300F88
:1008E30010270047807F0000000000000000000088
:1008F3000000000000000000000022322AA6A262CD
:100903002111098101000000000000000000000027
:100913000000000000000000004222130B42827E10
:1009230002020A122346000000000000000000003B
:1009330000000000000000002030AC63300088C8D5
:10094300A8998E88A8C88800000000000000000055
:1009530000000000000000002267221212804030D5
:100963000F00003F40407100000000000000000045
:0809730000000000000000007C
:10161800EF4E60157D087C07ED1DAA0470011C4A79
:0916280070F6EF1F70EA1E80E766
:011631002296
:10142600F583E5822CF582E43583F583E493FF7D2D
:0114360001B4
:10143700ED6004D2828002C282C283E4FEEEC394CE
:1014470008748094805015C2A2EF30E704D28080E0
:1014570002C280D2A2EF25E0FF0E80E1D283D282C2
:011467002262
:1015F800AC07ED24B0FFE4FD121437EC54F0C454EA
:101608000F4410FF121437EC540F4401FF02143733
:10167300E4FD7F8D1214377F141214377FAF0214E9
:01168300372F
:10168400E4FD7F8D1214377F101214377FAE0214DD
:01169400371E
:10152400E4FCECC3940874809480502CEC24B0FF49
:10153400E4FD121437E4FF1214377F10121437E459
:10154400FBEBC3948074809480500A7D01E4FF1205
:0815540014370B80EC0C80CA77
:01155C00226C
:06122100AA07A905AF03B6
:10122700E4FCEF24E0FBEAD3947F748094804004CD
:10123700E4FA0909AF02AD011215F8E4FCECC39416
:101247000874809480501D75F010EBA42CF582E48F
:1012570035F0F583E58224CBF582E583340112145A
:10126700300C80D9AF02E904FD1215F8E4FCECC399
:10127700940874809480501D75F010EBA42CF582AF
:10128700E435F0F583E58224D3F582E58334011252
:0512970014300C80D9A9
:01129C00222F
:041632008F4CA9052B
:101636007F017E00AD0119ED6009AD4C7C00120DF5
:031646007E80F1B2
:01164900227E
:08129D008F3A8D3B8A3C8B3D2A
:1012A500E4F542F540E540C3953E505FC3E53E9504
:1012B5004014FD7F0A121632AC3CAD3DCFCDCFCEEA
:1012C500CCCE120D907C007D0A120D908D41E54229
:1012D5007020E53E14FFE540C39F5016E541700FB1
:1012E500E53FC3138540F0A4253AFF7B20801375A5
:1012F5004201E53FC3138540F0A4253AFFE54124AB
:0B13050030FBAD3B1212210540809A26
:0113100022BA
:0A1468008F438D448B458A46894767
:10147200E4F548AB45AA46A9478548827583001220
:101482000D51FB6021AD44AF431212217408254374
:10149200F543D39478748094804007E4F54305447F
:0614A2000544054880CD61
:0114A8002221
:0413D100AA07A905B9
:1013D500E4F5431215F8E4FCECC394107480948092
:1013E500501575F040EBA424BBF582E5F0340712E7
:1013F500142605430C80E1AF02E904FD1215F8E45B
:10140500FCECC3941074809480501575F040EBA4E7
:1014150024DBF582E5F0340712142605430C80E140
:0114250022A4
:041311008F308B325C
:10131500E4F537F538E5335407700BE5331313134C
:10132500541FF539800AE533131313541F04F53997
:101335008D39E539C395335034AD39AF301215F8D1
:10134500AC30ECC395325021AB34AA35A9360538FB
:10135500E538AE377002053714F5828E83120D51CC
:0D136500FF7D011214370C80D9053980C5B9
:011372002258
:10104500D2817F647E00121618C2817F647E0012F1
:101055001618D281E4FD7FAE121437E4FF1214375F
:101065007F101214377F401214377F811214377F97
:10107500CF1214377FA11214377FC81214377FA6F9
:101085001214377FA81214377F3F1214377FD312FB
:101095001437E4FF1214377FD51214377F801214EA
:1010A500377FD91214377FF11214377FDA121437CC
:1010B5007F121214377FDB1214377F401214377FEB
:1010C500201214377F021214377F8D1214377F14C4
:1010D5001214377FA41214377FA61214377FAF126C
:1010E50014377FAF121437121524E4FDFF0215F8EB
:0C14A900D2957B017A007D017C007F0160
:0614B5008C4A8D4BA907D3
:1014BB00E4FFEFC3995027E4FEEEC3954BE54A6476
:1014CB0080F87480985014E4FDEDC39BEA6480F8B7
:0E14DB0074809850030D80F10E80DE0F80D4D7
:0114E90022E0
:10164A001214A9C2957B3F7D017F061214B5D2956B
:07165A007D017F050214B5BC
:1015C800E4F548F549754808D3E5489400748094D3
:1015D80080401AC29500E54913F5491214A93095BF
:0F15E800034349807B081214AD154880DBAF49DF
:0115F70022D1
:02155D008F48B5
:10155F00E4F549754908D3E54994007480948040B7
:10156F0022C29500E5481392957B0F1214ADD295C8
:10157F00E548C313F5487B017D017F011214B515B2
:03158F004980D3BD
:011592002236
:1013730012164A7FCC12155D7F4412155D12164A70
:101383007FCC12155D7FBE12155D1215C88F4712F3
:1013930015C8EFFEE547FFFDAC06E4120C97E4FB2E
:1013A300FA7980783D120A738F468E458D448C43BB
:1013B300E4FFFE7D207C41AB46AA45A944A8431225
:0E13C3000A73E4FBFAF9783F120982020CD09B
:10097B00020D3CE86480F8E933E83360110460F061
:10098B00ED33EC337009E8FCE9FDEAFEEBFF2204E2
:10099B0060DED3EB9FEA9EE99DE8C2E78CF0C2F7DD
:1009AB0095F0400CE8CCF8E9CDF9EACEFAEBCFFBA9
:1009BB00120D0785D0F05804700320D5B3E80470EE
:1009CB00075002B2D5020D4692D5EC0460F7E4CC89
:1009DB00C0E0C398F8603B94186008400DD0E0FB72
:1009EB00020D1EE4FBFAC9FC8028E830E406E4C9DA
:1009FB00FBE4CAFCE830E305E4C9CACBFCE85407C6
:100A0B006010F8C3E913F9EA13FAEB13FBEC13FCD0
:100A1B00D8F130F52FC3E49CFCEF9BFFEE9AFEED73
:100A2B0099FDD0E0FBEF4E4D4C701222DB03020D13
:100A3B0043EC2CFCEF33FFEE33FEED33FDED30E7F3
:100A4B00EB020D1EEF2BFFEE3AFEED39FDD0E0FB76
:100A5B0050130BBB0003020D46ED13FDEE13FEEF1F
:080A6B0013FFEC13FC020D1E49
:100A7300EC4D6011E8497017ED33EC3304600DE47D
:100A8300FCFFFEFD22E933E8330470F8020D3C124B
:100A93000D0758046009E4CC24815006285009024C
:100AA3000D46284003020D43C0E0EB4A7044B98071
:100AB30006D0E0FB020D32EF4E701CBD8008EBFF49
:100AC300EAFEE9FD80EBE98DF0A4FEE5F0020B5CA4
:100AD300E9CDF9EAFEEBFFEF89F0A4FCE5F0CE895E
:100AE300F0A42EFFE435F0CD89F0A42DFEE435F01B
:100AF3008067EF4E7005BD80D780C3EF8BF0A4AC49
:100B0300F0EE8BF0A42CFCE435F0F8EF8AF0A42C83
:100B1300E5F038FCE433CB8DF0A42CFCE5F03BF896
:100B2300EE8AF0A42CFCE5F038F8E433CF89F0A486
:100B33002CFCE5F038CF3400CE89F0A42FFFE5F08C
:100B43003EFEE433C98DF0A42EFEE5F039CD8AF0E4
:100B5300A42FFFE5F03EFEE43DFD33D0E0FB50075C
:100B63000BBB000F020D46EC2CFCEF33FFEE33FE04
:060B7300ED33FD020D1E32
:100B7900020D46EC5D046005E859047003020D3C62
:100B8900120D07580460F6EC4860F2EC7004FDFEA3
:100B9900FF22C860DB2481C85009C398600250064F
:100BA900020D439850CAF582E9294B4A7005AB8278
:100BB900020D3275F0007C1A7880C3EF9BEE9AED36
:100BC90099400DC3EF9BFFEE9AFEED99FDE842F0C7
:100BD900DC23ACF0D0E0FFD0E0FED0E0FDAB82201A
:100BE900E7101BEB60BAEC2CFCEF33FFEE33FEEDA4
:100BF90033FD020D1EE803F830E705C0F075F0007B
:100C0900EF2FFFEE33FEED33FD40B830E7C280AA87
:100C190074F8CC6480CCC86480C8F58204604FC382
:100C2900EB9FF5F0EA9E42F0E99D42F0E89C45F021
:100C3900603C501DE5825FFFE582D313CB5BCBF4AB
:100C49002B5582FB50280ABA002409B900200880D4
:100C59001DE5825BFBE582D313CF5FCFF4C3132F6E
:100C69005582FF50090EBE00050DBD00010CC3EBF6
:100C79009FF5F0EA9E42F0E99D42F0E89C45F0605C
:090C890007CC4820E701B3EC227E
:100C920075F020800E75F010800575F0087D007EDD
:100CA200007F003392D530D503120E1BEC33401077
:100CB200EF33FFEE33FEED33FDEC33FCD5F0ED22E6
:0E0CC200E5F0247EA2D513CC92E7CDCEFF2222
:100CD000EDD2E7CD33EC3392D524814006E4FFFE1C
:100CE000FDFC22FCE4CFCECDCC24E0501174FF807B
:100CF000EDC3CC13CCCD13CDCE13CECF13CF047018
:070D0000F030D5DE020E1BEE
:100D0700E9D2E7C933E833F892D5EDD2E7CD33EC32
:070D170033FC5002B2D522AB
:100D1E00EC30E7100FBF000C0EBE00080DBD000436
:100D2E000BEB6014A2D5EB13FCED92E7FD2274FFE2
:100D3E00FCFDFEFF22E480F8A2D574FF13FC7D803B
:030D4E00E480EF4F
:1011A100020F7FE493A3F8E493A34003F68001F2D6
:1011B10008DFF48029E493A3F85407240CC8C3334F
:1011C100C4540F4420C8834004F456800146F6DF1E
:1011D100E4800B0102040810204080901593E47E06
:1011E100019360BCA3FF543F30E509541FFEE49313
:1011F100A360010ECF54C025E060A840B8E493A3DA
:10120100FAE493A3F8E493A3C8C582C8CAC583CA04
:10121100F0A3C8C582C8CAC583CADFE9DEE780BEBC
:0115C7000023
:100D5100BB010CE58229F582E5833AF583E0225057
:100D610006E92582F8E622BBFE06E92582F8E222A1
:0D0D7100E58229F582E5833AF583E49322BB
:100D7E00EF8DF0A4A8F0CF8CF0A428CE8DF0A42E89
:020D8E00FE2243
:100D9000BC000BBE0029EF8DF084FFADF022E4CC47
:100DA000F875F008EF2FFFEE33FEEC33FCEE9DEC10
:100DB000984005FCEE9DFE0FD5F0E9E4CEFD22ED56
:100DC000F8F5F0EE8420D21CFEADF075F008EF2FA0
:100DD000FFED33FD4007985006D5F0F222C398FD91
:050DE0000FD5F0EA222E
:100DE500C2D5EC30E709B2D5E4C39DFDE49CFCEE29
:100DF50030E715B2D5E4C39FFFE49EFE120D90C304
:100E0500E49DFDE49CFC8003120D9030D507C3E4FE
:060E15009FFFE49EFE2297
:0E0E1B00C3E49FFFE49EFEE49DFDE49CFC22E8
:00000001FF
